:020000040800F2
:1000000000000220C50B0008350A00083D0A000860
:10001000450A00084D0A0008550A000800000000C3
:100020000000000000000000000000005D0A000861
:100030006B0A000800000000790A0008870A00081F
:10004000150C0008150C0008150C0008150C00080C
:10005000150C0008150C0008150C0008150C0008FC
:10006000150C0008150C0008150C0008150C0008EC
:10007000150C0008150C0008150C0008150C0008DC
:10008000150C0008150C0008150C000800000000F5
:10009000000000000000000000000000150C000837
:1000A000150C0008150C0008150C0008150C0008AC
:1000B000150C0008150C0008150C0008150C00089C
:1000C000150C0008150C0008150C0008150C00088C
:1000D000150C0008150C0008150C000800000000A5
:1000E000150C0008150C0008150C00080000000095
:1000F000000000000000000000000000150C0008D7
:1001000000000000150C0008150C0008150C000874
:1001100000000000000000000000000000000000DF
:10012000150C0008150C0008150C0008150C00082B
:10013000150C000800000000000000000000000096
:10014000000000000000000000000000150C000886
:10015000150C0008150C0008150C0008150C0008FB
:10016000150C0008150C000800000000000000003D
:10017000000000000000000000000000000000007F
:1001800000000000150C0008000000000000000046
:08019000150C0008150C000815
:1001A00010B5054C237833B9044B13B10448AFF3B1
:1001B00000800123237010BD6800002000000000B3
:1001C0007C39000808B5034B1BB103490348AFF362
:1001D000008008BD000000006C0000207C39000891
:1001E00001F0FF01102A2BDB10F0070F08D010F8E8
:1001F000013B013A8B422DD010F0070F42B3F6D1EC
:10020000F0B441EA012141EA014122F007047FF004
:1002100000070023F0E80256083C85EA010586EA5B
:10022000010685FA47F5A3FA87F586FA47F6A5FA97
:1002300087F68EB9EED1F0BC01F0FF0102F00702A3
:1002400032B110F8013B013A83EA010313B1F8D14E
:100250000020704701387047002D06BF354603382F
:10026000073815F0010F07D1013015F4807F02BF68
:10027000013015F4C03F0130F0BC0138704700BFB9
:1002800053B94AB9002908BF00281CBF4FF0FF31FD
:100290004FF0FF3000F06AB9ADF1080C6DE904CE03
:1002A00000F006F8DDF804E0DDE9022304B0704751
:1002B0002DE9F047089D0C46002B4ED194468C4505
:1002C0008646B2FA82F262D94AB1C2F12003914065
:1002D00020FA03F30CFA02FC194300FA02FE4FEA7B
:1002E0001C471FFA8CF6B1FBF7F44FEA1E4307FBDD
:1002F000141143EA014304FB06F199420AD91CEBAD
:10030000030304F1FF3080F01281994240F20F8123
:10031000023C6344591A1FFA8EF3B1FBF7F007FB56
:10032000101143EA014300FB06F69E420AD91CEB7A
:10033000030300F1FF3180F0FC809E4240F2F9801F
:10034000634402389B1B40EA044000211DB1D340A6
:100350000022C5E90032BDE8F0878B4205D90DB116
:10036000C5E9000100210846F5E7B3FA83F1002949
:1003700046D1A34202D39042C0F0F080861A64EBCB
:1003800003030120002DE6D0C5E90063E3E7002A5E
:1003900040F09080A1EB0C044FEA1C481FFA8CF748
:1003A0000121B4FBF8F64FEA1E4308FB164443EA6A
:1003B000044307FB06F0984208D91CEB030306F13F
:1003C000FF3402D2984200F2CD8026461C1A1FFA52
:1003D0008EF3B4FBF8F008FB104443EA044300FB3F
:1003E00007F79F4208D91CEB030300F1FF3402D248
:1003F0009F4200F2B0802046DB1B40EA0640A5E7A2
:10040000C1F120068B4022FA06F71F4320FA06FCB2
:1004100004FA01F343EA0C03F44000FA01F8380C43
:100420004FEA1349B4FBF0FE1FFA87FC00FB1E44A1
:1004300049EA04440EFB0CF9A14502FA01F20AD97B
:100440003C190EF1FF3A80F08480A14540F2818092
:10045000AEF1020E3C44A4EB09041FFA83F9B4FB8D
:10046000F0F300FB134449EA044403FB0CFCA445ED
:1004700007D93C1903F1FF3067D2A44565D9023B87
:100480003C4443EA0E40A0FB0293A4EB0C049C42C4
:10049000CE469C4651D34ED055B1B8EB0E0364EB1B
:1004A0000C0404FA06F6CB401E43CC40C5E90064B8
:1004B000002150E7C2F1200320FA03F10CFA02FCFC
:1004C00024FA03F394400C434FEA1C4800FA02FE5E
:1004D0001FFA8CF7B3FBF8F008FB1031230C43EA4A
:1004E000014300FB07F1994208D91CEB030300F11B
:1004F000FF362CD299422AD9023863445B1AA4B23F
:10050000B3FBF8F108FB113344EA034401FB07F3A2
:10051000A34208D91CEB040401F1FF3613D2A34215
:1005200011D902396444E41A41EA004139E704462A
:10053000F0E6084606E7C845AED2B9EB020E63EB1B
:10054000070C0138A8E73146EDE7034699E7304646
:10055000D4E7D6467FE7634402384DE70646234694
:1005600008460FE7023E634430E700BF704700BF14
:1005700080B58EB000AF00237B632FE07B6B87F8E4
:100580003330796B1A4802F08BFB7B6B9BB297F888
:1005900033201146184600F04DF897F833301A46CC
:1005A000796B144802F07CFB7B6B9BB2184600F021
:1005B00025F8034687F8323097F832301A46796BBF
:1005C0000D4802F06DFB97F8322097F833309A42CD
:1005D00001D0012307E07B6B01337B637B6BB3F5B9
:1005E000004FCBD3002318463837BD4680BD00BF2F
:1005F00094390008A8390008B839000880B588B0D7
:1006000004AF0346FB800023FB73FA880A2302939E
:100610000123019307F10F0300931023A021044845
:1006200001F052F8FB7B18461037BD4680BD00BF75
:100630008400002080B586B004AF03460A46FB80E4
:1006400013467B71FA8864230293012301937B1D77
:1006500000931023A021084800F03CFF0346002B24
:1006600002D0064802F01CFB052000F047FB00BF4B
:100670000837BD4680BD00BF84000020C83900088F
:1006800080B483B000AF78604FF06043D3F8803E11
:1006900003F00103002B13D04FF06043D3F8003E6A
:1006A00003F00103002B0BD000E000BF4FF06043CC
:1006B0001B68002BF9D04FF060437A68D2B21A70F1
:1006C0007B6818460C37BD465DF8047B704780B5E3
:1006D00086B000AFF860B9607A6000237B610023C8
:1006E0007B6109E0BB685A1CBA601B781846FFF7AB
:1006F000C7FF7B6901337B617A697B689A42F1DBD2
:100700007B6818461837BD4680BD000080B582B0B2
:1007100000AF00F081FA00F029F800F0B3F800F023
:1007200083F8FFF725FF0346FB710C4802F0B8FA87
:10073000FB79002B03D10A4802F0B2FA09E0FB79F9
:10074000012B03D1074802F0ABFA02E0064802F0A1
:10075000A7FA4FF47A7000F0D1FAE6E7D43900082E
:10076000E8390008003A0008183A000880B594B04B
:1007700000AF07F1200330220021184602F0E5FA0D
:1007800007F10C0300221A605A609A60DA601A615D
:100790000023BB60224B1B6C214A43F0805313643F
:1007A0001F4B1B6C03F08053BB60BB6800237B6056
:1007B0001C4B1B681B4A43F440431360194B1B68D6
:1007C00003F440437B607B6802233B620123FB62AE
:1007D00010233B630023BB6307F12003184601F09D
:1007E00059FD0346002B01D000F09CF80F23FB605D
:1007F00000233B6100237B610023BB610023FB617D
:1008000007F10C030021184601F0BCFF0346002B42
:1008100001D000F087F800BF5037BD4680BD00BF53
:10082000003802400070004080B500AF124B134A00
:100830001A60114B124A5A600F4B00229A600E4BFD
:100840000022DA600C4B4FF480421A610A4B0022FE
:100850005A61094B00229A61074B0022DA61064B6C
:1008600000221A62044800F0F1FC0346002B01D07C
:1008700000F058F800BF80BD840000200058004000
:10088000A086010080B588B000AF07F10C030022FC
:100890001A605A609A60DA601A610023BB601F4BCD
:1008A0001B6B1E4A43F0800313631C4B1B6B03F04E
:1008B0008003BB60BB6800237B60184B1B6B174A2F
:1008C00043F001031363154B1B6B03F001037B60C3
:1008D0007B6800233B60114B1B6B104A43F0020303
:1008E00013630E4B1B6B03F002033B603B6800225B
:1008F00010210B4800F090FC1023FB6001233B61AA
:1009000000237B610023BB6107F10C0319460448F7
:1009100000F0FEFA00BF2037BD4680BD003802401F
:100920000000024080B400AF72B600BF00BFFDE718
:1009300080B483B000AF00237B60104B5B6C0F4A28
:1009400043F4804353640D4B5B6C03F480437B6042
:100950007B6800233B60094B1B6C084A43F08053C3
:100960001364064B1B6C03F080533B603B6800BF75
:100970000C37BD465DF8047B704700BF003802406D
:1009800080B58AB000AF786007F1140300221A60C6
:100990005A609A60DA601A617B681B68224A934247
:1009A0003DD100233B61214B1B6B204A43F00203E6
:1009B00013631E4B1B6B03F002033B613B694FF457
:1009C00080637B611223BB610023FB6103233B62D5
:1009D00004237B6207F114031946154800F098FAC6
:1009E0004FF400737B611223BB610023FB6103237F
:1009F0003B6209237B6207F1140319460C4800F09F
:100A000087FA0023FB60094B1B6C084A43F4800300
:100A10001364064B1B6C03F48003FB60FB6800BF90
:100A20002837BD4680BD00BF005800400038024056
:100A30000004024080B400AF00BFFDE780B400AF07
:100A400000BFFDE780B400AF00BFFDE780B400AF9A
:100A500000BFFDE780B400AF00BFFDE780B400AF8A
:100A600000BFBD465DF8047B704780B400AF00BF97
:100A7000BD465DF8047B704780B400AF00BFBD4643
:100A80005DF8047B704780B500AF00F017F900BF38
:100A900080BD80B586B000AFF860B9607A60002391
:100AA0007B610AE0AFF300800146BB685A1CBA6064
:100AB000CAB21A707B6901337B617A697B689A429A
:100AC000F0DB7B6818461837BD4680BD80B483B024
:100AD00000AF78604FF0FF3318460C37BD465DF825
:100AE000047B704780B483B000AF786039603B68A6
:100AF0004FF400525A60002318460C37BD465DF88B
:100B0000047B704780B483B000AF7860012318463F
:100B10000C37BD465DF8047B704780B485B000AFEC
:100B2000F860B9607A60002318461437BD465DF856
:100B3000047B704780B586B000AF7860144A154BCF
:100B4000D31A7B617B693B61134B1B68002B02D17D
:100B5000114B124A1A60104B1A687B6813443A69A9
:100B60009A4207D202F040F903460C221A604FF075
:100B7000FF3309E0084B1B68FB60074B1A687B6872
:100B80001344054A1360FB6818461837BD4680BDFC
:100B90000000022000040000D800002030020020E5
:100BA00080B400AF064BD3F88830054A43F4700395
:100BB000C2F8883000BFBD465DF8047B704700BFB7
:100BC00000ED00E0DFF834D0FFF7EAFF0C480D49F4
:100BD0000D4A002302E0D458C4500433C4188C4298
:100BE000F9D30A4A0A4C002301E013600432A242FE
:100BF000FBD302F0FFF8FFF789FD704700000220E9
:100C000000000020680000208C3A000868000020E6
:100C10002C020020FEE7000080B500AF0E4B1B68E1
:100C20000D4A43F4007313600B4B1B680A4A43F4EC
:100C300080631360084B1B68074A43F4807313609A
:100C4000032000F031F90F2000F008F8FFF770FEE4
:100C50000023184680BD00BF003C024080B582B032
:100C600000AF7860124B1A68124B1B7819464FF48C
:100C70007A73B3FBF1F3B2FBF3F3184600F03BF9E0
:100C80000346002B01D001230EE07B680F2B0AD80E
:100C9000002279684FF0FF3000F011F9064A7B68B6
:100CA0001360002300E0012318460837BD4680BDCD
:100CB00000000020080000200400002080B400AFE5
:100CC000064B1B781A46064B1B681344044A1360F4
:100CD00000BFBD465DF8047B704700BF08000020E0
:100CE000DC00002080B400AF034B1B681846BD46F3
:100CF0005DF8047B704700BFDC00002080B584B045
:100D000000AF7860FFF7EEFFB8607B68FB60FB68C0
:100D1000B3F1FF3F05D00A4B1B781A46FB6813441A
:100D2000FB6000BFFFF7DEFF0246BB68D31AFA681C
:100D30009A42F7D800BF00BF1037BD4680BD00BF44
:100D40000800002080B485B000AF78607B6803F0B5
:100D50000703FB600C4BDB68BB60BA684FF6FF0310
:100D60001340BB60FB681A02BB68134343F0BF63C8
:100D700043F40033BB60044ABB68D36000BF143740
:100D8000BD465DF8047B704700ED00E080B400AF25
:100D9000044BDB681B0A03F007031846BD465DF8E9
:100DA000047B704700ED00E080B483B000AF0346E1
:100DB0003960FB7197F90730002B0ADB3B68DAB228
:100DC0000C4997F907301201D2B20B4483F8002383
:100DD0000AE03B68DAB20849FB7903F00F03043BF1
:100DE0001201D2B20B441A7600BF0C37BD465DF833
:100DF000047B704700E100E000ED00E080B489B0C2
:100E000000AFF860B9607A60FB6803F00703FB612C
:100E1000FB69C3F10703042B28BF0423BB61FB69F3
:100E20000433062B02D9FB69033B00E000237B61FE
:100E30004FF0FF32BB6902FA03F3DA43BB681A4092
:100E40007B699A404FF0FF317B6901FA03F3D94384
:100E50007B680B40134318462437BD465DF8047B7E
:100E60007047000080B582B000AF78607B68013BBE
:100E7000B3F1807F01D301230FE00A4A7B68013B75
:100E800053600F214FF0FF30FFF78EFF054B00221C
:100E90009A60044B07221A60002318460837BD46A3
:100EA00080BD00BF10E000E080B582B000AF786088
:100EB0007868FFF747FF00BF0837BD4680BD80B5A3
:100EC00086B000AF0346B9607A60FB7300237B6194
:100ED000FFF75CFF78617A68B9687869FFF78EFF81
:100EE000024697F90F3011461846FFF75DFF00BF25
:100EF0001837BD4680BD80B582B000AF7860786895
:100F0000FFF7B0FF034618460837BD4680BD000016
:100F100080B489B000AF7860396000237B61002322
:100F20003B610023BB610023FB6159E10122FB69A6
:100F300002FA03F37B613B681B687A6913403B61EB
:100F40003A697B699A4240F048813B685B6803F0EC
:100F50000303012B05D03B685B6803F00303022BFE
:100F600030D17B689B68BB61FB695B00032202FA9E
:100F700003F3DB43BA691340BB613B68DA68FB6982
:100F80005B0002FA03F3BA691343BB617B68BA6979
:100F90009A607B685B68BB610122FB6902FA03F31C
:100FA000DB43BA691340BB613B685B681B0903F014
:100FB0000102FB6902FA03F3BA691343BB617B6860
:100FC000BA695A603B685B6803F00303032B17D0D0
:100FD0007B68DB68BB61FB695B00032202FA03F3F9
:100FE000DB43BA691340BB613B689A68FB695B00ED
:100FF00002FA03F3BA691343BB617B68BA69DA602A
:101000003B685B6803F00303022B23D1FB69DA081A
:101010007B68083253F82230BB61FB6903F0070399
:101020009B000F2202FA03F3DB43BA691340BB6152
:101030003B681A69FB6903F007039B0002FA03F39C
:10104000BA691343BB61FB69DA087B680832B96986
:1010500043F822107B681B68BB61FB695B000322BD
:1010600002FA03F3DB43BA691340BB613B685B6878
:1010700003F00302FB695B0002FA03F3BA6913434E
:10108000BB617B68BA691A603B685B6803F44033F4
:10109000002B00F0A2800023FB60574B5B6C564A8C
:1010A00043F480435364544B5B6C03F48043FB6014
:1010B000FB68524AFB699B08023352F82330BB613C
:1010C000FB6903F003039B000F2202FA03F3DB43E7
:1010D000BA691340BB617B68494A934219D07B6867
:1010E000484A934213D07B68474A93420DD07B68AD
:1010F000464A934207D07B68454A934201D1042374
:1011000008E0072306E0032304E0022302E00123B2
:1011100000E00023FA6902F0030292009340BA69EA
:101120001343BB613549FB699B080233BA6941F837
:101130002320384B9B68BB613B69DB43BA69134092
:10114000BB613B685B6803F48013002B03D0BA6972
:101150003B691343BB612F4ABB6993602D4BDB682E
:10116000BB613B69DB43BA691340BB613B685B68A9
:1011700003F40013002B03D0BA693B691343BB612E
:10118000244ABB69D360234B5B68BB613B69DB438B
:10119000BA691340BB613B685B6803F40033002B02
:1011A00003D0BA693B691343BB611A4ABB695360F8
:1011B000184B1B68BB613B69DB43BA691340BB61D9
:1011C0003B685B6803F48033002B03D0BA693B694A
:1011D0001343BB610F4ABB691360FB690133FB61B9
:1011E000FB690F2B7FF6A2AE00BF00BF2437BD46C0
:1011F0005DF8047B704700BF0038024000380140B2
:10120000000002400004024000080240000C0240BE
:1012100000100240003C014080B483B000AF786011
:101220000B467B8013467B707B78002B03D07A883B
:101230007B689A6103E07B881A047B689A6100BF2F
:101240000C37BD465DF8047B7047000080B584B064
:1012500000AF78607B68002B01D101232BE17B6814
:1012600093F83D30DBB2002B06D17B68002283F877
:101270003C207868FFF784FB7B68242283F83D20BC
:101280007B681B681A687B681B6822F001021A6081
:101290007B681B681A687B681B6842F400421A600E
:1012A0007B681B681A687B681B6822F400421A601E
:1012B00001F020FCF8607B685B68814A934207D8A4
:1012C000FB68804A934294BF01230023DBB206E00F
:1012D000FB687D4A934294BF01230023DBB2002BBD
:1012E00001D00123E7E0FB68784AA2FB03239B0CB3
:1012F000BB607B681B685B6823F03F017B681B68F1
:10130000BA680A435A607B681B681B6A23F03F0176
:101310007B685B686A4A934202D8BB68013309E084
:10132000BB684FF4967202FB03F3694AA2FB0323E6
:101330009B0901337A6812680B4313627B681B6850
:10134000DB6923F44F4222F0FF027B685B685C4953
:101350008B4219D8FB68591E7B685B685B00B1FB48
:10136000F3F3591C40F6FC730B40002B0AD0FB68CA
:10137000591E7B685B685B00B1FBF3F30133C3F379
:101380000B0351E004234FE07B689B68002B11D1D5
:10139000FB68581E7B6859680B465B000B44B0FB2A
:1013A000F3F30133C3F30B03002B0CBF0123002322
:1013B000DBB212E0FB68581E7B6859680B469B0045
:1013C0000B4499000B44B0FBF3F30133C3F30B035D
:1013D000002B0CBF01230023DBB2002B01D0012323
:1013E00022E07B689B68002B0ED1FB68581E7B684F
:1013F00059680B465B000B44B0FBF3F30133C3F3B6
:101400000B0343F400430FE0FB68581E7B685968E8
:101410000B469B000B4499000B44B0FBF3F30133E4
:10142000C3F30B0343F44043796809681343CB616A
:101430007B681B681B6823F0C0017B68DA697B68E6
:101440001B6A1A437B681B680A431A607B681B6827
:101450009B6823F4034323F0FF037A6811697A68D9
:10146000D26811437A6812680B4393607B681B68EB
:10147000DB6823F0FF017B685A697B689B691A432C
:101480007B681B680A43DA607B681B681A687B68A4
:101490001B6842F001021A607B6800221A647B68B4
:1014A000202283F83D207B6800221A637B6800229B
:1014B00083F83E20002318461037BD4680BD00BF8C
:1014C000A08601007F841E00FF083D0083DE1B43D1
:1014D000D34D621080B588B002AFF860084611465F
:1014E0001A4603467B810B463B811346FB80FFF780
:1014F000F9FB7861FB6893F83D30DBB2202B40F0BC
:10150000D9807B690093192301226D49F86800F0A6
:101510008BFC0346002B01D00223CCE0FB6893F840
:101520003C30012B01D10223C5E0FB68012283F886
:101530003C20FB681B681B6803F00103012B07D0EC
:10154000FB681B681A68FB681B6842F001021A609E
:10155000FB681B681A68FB681B6822F400621A604B
:10156000FB68212283F83D20FB68402283F83E205F
:10157000FB6800221A64FB683A6A5A62FB68BA8CFC
:101580005A85FB685B8D9AB2FB681A85FB684D4AE9
:10159000DA62F8883A8979897B690193BB6A00939A
:1015A0000346F86800F0C2FA0346002B52D001232C
:1015B00081E07A69B96AF86800F050FD0346002BB3
:1015C0000DD0FB681B6C042B07D1FB681B681A68E5
:1015D000FB681B6842F400721A6001236BE0FB6831
:1015E0005B6A1A78FB681B681A61FB685B6A5A1CA5
:1015F000FB685A62FB681B8D013B9AB2FB681A8537
:10160000FB685B8D9BB2013B9AB2FB685A85FB6815
:101610001B685B6903F00403042B1BD1FB681B8D63
:10162000002B17D0FB685B6A1A78FB681B681A618D
:10163000FB685B6A5A1CFB685A62FB681B8D013BA6
:101640009AB2FB681A85FB685B8D9BB2013B9AB22C
:10165000FB685A85FB681B8D002BAAD17A69B96A91
:10166000F86800F043FD0346002B0DD0FB681B6CAF
:10167000042B07D1FB681B681A68FB681B6842F4DF
:1016800000721A60012316E0FB681B681A68FB6889
:101690001B6842F400721A60FB68202283F83D2028
:1016A000FB68002283F83E20FB68002283F83C2080
:1016B000002300E0022318461837BD4680BD00BF56
:1016C000020010000000FFFF80B58CB002AFF86090
:1016D000084611461A4603467B810B463B8113465A
:1016E000FB80FFF7FFFA7862FB6893F83D30DBB2CE
:1016F000202B40F014827B6A0093192301227B493E
:10170000F86800F091FB0346002B01D0022307E2AA
:10171000FB6893F83C30012B01D1022300E2FB6807
:10172000012283F83C20FB681B681B6803F001035F
:10173000012B07D0FB681B681A68FB681B6842F026
:1017400001021A60FB681B681A68FB681B6822F4B8
:1017500000621A60FB68222283F83D20FB68402269
:1017600083F83E20FB6800221A64FB683A6B5A62D9
:10177000FB68BA8E5A85FB685B8D9AB2FB681A8546
:10178000FB685B4ADA62F8883A8979897B6A019357
:10179000BB6B00930346F86800F05EFA0346002B2B
:1017A00001D00123BCE1FB681B8D002B13D100236A
:1017B0003B62FB681B685B693B62FB681B689B695B
:1017C0003B623B6AFB681B681A68FB681B6842F453
:1017D00000721A6090E1FB681B8D012B1BD1FB6826
:1017E0001B681A68FB681B6822F480621A60002379
:1017F000FB61FB681B685B69FB61FB681B689B699D
:10180000FB61FB69FB681B681A68FB681B6842F494
:1018100000721A6070E1FB681B8D022B1BD1FB6804
:101820001B681A68FB681B6822F480621A60FB68F8
:101830001B681A68FB681B6842F400621A60002388
:10184000BB61FB681B685B69BB61FB681B689B69CC
:10185000BB61BB6950E100237B61FB681B685B696E
:101860007B61FB681B689B697B617B6944E1FB686A
:101870001B8D032B00F2F180FB681B8D012B23D104
:101880007A6AB96BF86800F079FC0346002B01D046
:10189000012345E1FB681B681A69FB685B6AD2B2E9
:1018A0001A70FB685B6A5A1CFB685A62FB681B8DE6
:1018B000013B9AB2FB681A85FB685B8D9BB2013BCA
:1018C0009AB2FB685A8517E1FB681B8D022B4ED13B
:1018D0007B6A0093BB6B00220649F86800F0A4FA0B
:1018E0000346002B08D001231AE100BF02001000BC
:1018F0000000FFFF04000100FB681B681A68FB681A
:101900001B6842F400721A60FB681B681A69FB6866
:101910005B6AD2B21A70FB685B6A5A1CFB685A6237
:10192000FB681B8D013B9AB2FB681A85FB685B8DD7
:101930009BB2013B9AB2FB685A85FB681B681A6927
:10194000FB685B6AD2B21A70FB685B6A5A1CFB6860
:101950005A62FB681B8D013B9AB2FB681A85FB68D3
:101960005B8D9BB2013B9AB2FB685A85C4E07B6AEF
:101970000093BB6B00226C49F86800F055FA0346EF
:10198000002B01D00123CBE0FB681B681A68FB68C1
:101990001B6822F480621A60FB681B681A69FB6886
:1019A0005B6AD2B21A70FB685B6A5A1CFB685A62A7
:1019B000FB681B8D013B9AB2FB681A85FB685B8D47
:1019C0009BB2013B9AB2FB685A857B6A0093BB6B62
:1019D00000225549F86800F027FA0346002B01D091
:1019E00001239DE0FB681B681A68FB681B6842F4D2
:1019F00000721A60FB681B681A69FB685B6AD2B2E6
:101A00001A70FB685B6A5A1CFB685A62FB681B8D84
:101A1000013B9AB2FB681A85FB685B8D9BB2013B68
:101A20009AB2FB685A85FB681B681A69FB685B6A97
:101A3000D2B21A70FB685B6A5A1CFB685A62FB6878
:101A40001B8D013B9AB2FB681A85FB685B8D9BB2CC
:101A5000013B9AB2FB685A854EE07A6AB96BF86826
:101A600000F08CFB0346002B01D0012358E0FB68FB
:101A70001B681A69FB685B6AD2B21A70FB685B6A02
:101A80005A1CFB685A62FB681B8D013B9AB2FB68CB
:101A90001A85FB685B8D9BB2013B9AB2FB685A8545
:101AA000FB681B685B6903F00403042B24D1FB680B
:101AB0001B8D032B07D1FB681B681A68FB681B682A
:101AC00022F480621A60FB681B681A69FB685B6A13
:101AD000D2B21A70FB685B6A5A1CFB685A62FB68D8
:101AE0001B8D013B9AB2FB681A85FB685B8D9BB22C
:101AF000013B9AB2FB685A85FB681B8D002B7FF473
:101B0000B6AEFB68202283F83D20FB68002283F8F4
:101B10003E20FB68002283F83C20002300E00223E3
:101B200018462837BD4680BD0400010080B588B046
:101B300002AFF860084611461A4603467B810B4601
:101B40003B811346FB80FB681B681A68FB681B68B7
:101B500042F480721A607B6A00933B6A00224FF065
:101B60000111F86800F060F90346002B0DD0FB6806
:101B70001B681B6803F48073B3F5807F03D1FB6897
:101B80004FF400721A6403235FE07B89DBB21A46CC
:101B9000FB681B6802F0FE021A617B6A3A6A2D49F3
:101BA000F86800F0BBF90346002B01D001234CE09C
:101BB00000237B61FB681B685B697B61FB681B68BA
:101BC0009B697B617B697A6A396AF86800F046FA3A
:101BD0000346002B0DD0FB681B6C042B07D1FB6860
:101BE0001B681A68FB681B6842F400721A600123C4
:101BF0002BE0FB88012B05D13B89DAB2FB681B681F
:101C00001A6121E03B891B0A9BB2DAB2FB681B68B0
:101C10001A617A6A396AF86800F020FA0346002BE4
:101C20000DD0FB681B6C042B07D1FB681B681A687E
:101C3000FB681B6842F400721A60012305E03B89CF
:101C4000DAB2FB681B681A61002318461837BD46D4
:101C500080BD00BF0200010080B588B002AFF8600F
:101C6000084611461A4603467B810B463B811346C4
:101C7000FB80FB681B681A68FB681B6842F4806283
:101C80001A60FB681B681A68FB681B6842F4807264
:101C90001A607B6A00933B6A00224FF00111F868DA
:101CA00000F0C2F80346002B0DD0FB681B681B68D0
:101CB00003F48073B3F5807F03D1FB684FF40072A7
:101CC0001A640323AAE07B89DBB21A46FB681B680F
:101CD00002F0FE021A617B6A3A6A5249F86800F023
:101CE0001DF90346002B01D0012397E000237B61FF
:101CF000FB681B685B697B61FB681B689B697B6198
:101D00007B697A6A396AF86800F0A8F90346002B03
:101D10000DD0FB681B6C042B07D1FB681B681A688D
:101D2000FB681B6842F400721A60012376E0FB88AE
:101D3000012B05D13B89DAB2FB681B681A6121E0EF
:101D40003B891B0A9BB2DAB2FB681B681A617A6A8C
:101D5000396AF86800F082F90346002B0DD0FB6861
:101D60001B6C042B07D1FB681B681A68FB681B6897
:101D700042F400721A60012350E03B89DAB2FB683A
:101D80001B681A617A6A396AF86800F067F90346D5
:101D9000002B0DD0FB681B6C042B07D1FB681B6864
:101DA0001A68FB681B6842F400721A60012335E070
:101DB000FB681B681A68FB681B6842F480721A6033
:101DC0007B6A00933B6A00224FF00111F86800F033
:101DD0002BF80346002B0DD0FB681B681B6803F42F
:101DE0008073B3F5807F03D1FB684FF400721A64EF
:101DF000032313E07B89DBB243F00103DAB2FB6813
:101E00001B681A617B6A3A6A0649F86800F086F82E
:101E10000346002B01D0012300E0002318461837A9
:101E2000BD4680BD0200010080B584B000AFF860FF
:101E3000B9603B601346FB7148E03B68B3F1FF3F7C
:101E400044D0FEF74FFF0246BB69D31A3A689A4264
:101E500002D33B68002B39D1BB681B0CDBB2012BD2
:101E60000DD1FB681B685B69DA43BB6813409BB20A
:101E7000002B0CBF01230023DBB21A460CE0FB68E9
:101E80001B689B69DA43BB6813409BB2002B0CBFF5
:101E900001230023DBB21A46FB799A4216D1FB6874
:101EA00000221A63FB68202283F83D20FB68002291
:101EB00083F83E20FB681B6C43F02002FB681A6429
:101EC000FB68002283F83C20012323E0BB681B0C45
:101ED000DBB2012B0DD1FB681B685B69DA43BB6881
:101EE00013409BB2002B0CBF01230023DBB21A4628
:101EF0000CE0FB681B689B69DA43BB6813409BB22C
:101F0000002B0CBF01230023DBB21A46FB799A4257
:101F100093D0002318461037BD4680BD80B584B0ED
:101F200000AFF860B9607A603B6071E0FB681B68E5
:101F30005B6903F48063B3F5806F23D1FB681B6892
:101F40001A68FB681B6842F400721A60FB681B6821
:101F50006FF480625A61FB6800221A63FB682022DA
:101F600083F83D20FB68002283F83E20FB681B6C51
:101F700043F00402FB681A64FB68002283F83C20EB
:101F8000012367E07B68B3F1FF3F41D0FEF7AAFE73
:101F900002463B68D31A7A689A4202D37B68002BC8
:101FA00036D1BB681B0CDBB2012B0CD1FB681B6864
:101FB0005B69DA43BB6813409BB2002B14BF01235B
:101FC0000023DBB20BE0FB681B689B69DA43BB684C
:101FD00013409BB2002B14BF01230023DBB2002B64
:101FE00016D0FB6800221A63FB68202283F83D208C
:101FF000FB68002283F83E20FB681B6C43F0200244
:10200000FB681A64FB68002283F83C20012321E06E
:10201000BB681B0CDBB2012B0CD1FB681B685B6936
:10202000DA43BB6813409BB2002B14BF012300238B
:10203000DBB20BE0FB681B689B69DA43BB681340AB
:102040009BB2002B14BF01230023DBB2002B7FF4D3
:102050006DAF002318461037BD4680BD80B584B0F3
:1020600000AFF860B9607A6034E0F86800F0E3F837
:102070000346002B01D0012334E0BB68B3F1FF3FDE
:1020800028D0FEF72FFE02467B68D31ABA689A4220
:1020900002D3BB68002B1DD1FB681B685B6903F092
:1020A0008003802B16D0FB6800221A63FB68202275
:1020B00083F83D20FB68002283F83E20FB681B6C00
:1020C00043F02002FB681A64FB68002283F83C207E
:1020D000012307E0FB681B685B6903F08003802B2A
:1020E000C3D1002318461037BD4680BD80B584B0EB
:1020F00000AFF860B9607A6034E0F86800F09BF8EF
:102100000346002B01D0012334E0BB68B3F1FF3F4D
:1021100028D0FEF7E7FD02467B68D31ABA689A42D8
:1021200002D3BB68002B1DD1FB681B685B6903F001
:102130000403042B16D0FB6800221A63FB682022DC
:1021400083F83D20FB68002283F83E20FB681B6C6F
:1021500043F02002FB681A64FB68002283F83C20ED
:10216000012307E0FB681B685B6903F00403042B91
:10217000C3D1002318461037BD4680BD80B584B05A
:1021800000AFF860B9607A6049E0FB681B685B6982
:1021900003F01003102B19D1FB681B686FF01002BD
:1021A0005A61FB6800221A63FB68202283F83D20F5
:1021B000FB68002283F83E20FB681A6CFB681A64F7
:1021C000FB68002283F83C20012330E0FEF78AFD03
:1021D00002467B68D31ABA689A4202D3BB68002BC6
:1021E0001DD1FB681B685B6903F04003402B16D0D0
:1021F000FB6800221A63FB68202283F83D20FB68FD
:10220000002283F83E20FB681B6C43F02002FB6831
:102210001A64FB68002283F83C20012307E0FB6876
:102220001B685B6903F04003402BAED100231846C6
:102230001037BD4680BD80B483B000AF78607B6846
:102240001B685B6903F48063B3F5806F1BD17B6807
:102250001B686FF480625A617B6800221A637B6896
:10226000202283F83D207B68002283F83E207B6893
:102270001B6C43F004027B681A647B68002283F8BD
:102280003C20012300E0002318460C37BD465DF8D2
:10229000047B704780B586B000AF78607B68002B08
:1022A00001D1012367E27B681B6803F00103002B67
:1022B00075D0884B9B6803F00C03042B0CD0854B26
:1022C0009B6803F00C03082B12D1824B5B6803F46C
:1022D0008003B3F5800F0BD17E4B1B6803F40033F2
:1022E000002B5BD07B685B68002B57D1012342E257
:1022F0007B685B68B3F5803F06D1764B1B68754AF7
:1023000043F4803313601DE07B685B68B3F5A02F56
:102310000CD1704B1B686F4A43F4802313606D4BE4
:102320001B686C4A43F4803313600BE0694B1B68F5
:10233000684A23F480331360664B1B68654A23F4B4
:10234000802313607B685B68002B13D0FEF7CAFC08
:10235000386108E0FEF7C6FC02463B69D31A642BDD
:1023600001D9032307E25B4B1B6803F40033002B06
:10237000F0D014E0FEF7B6FC386108E0FEF7B2FCDE
:1023800002463B69D31A642B01D90323F3E1514B75
:102390001B6803F40033002BF0D100E000BF7B6822
:1023A0001B6803F00203002B63D04A4B9B6803F0C9
:1023B0000C03002B0BD0474B9B6803F00C03082B3E
:1023C0001CD1444B5B6803F48003002B16D1414BB6
:1023D0001B6803F00203002B05D07B68DB68012B30
:1023E00001D00123C7E13B4B1B6823F0F8027B6857
:1023F0001B69DB00374913430B603AE07B68DB68FD
:10240000002B20D0344B01221A60FEF76BFC3861A0
:1024100008E0FEF767FC02463B69D31A022B01D99C
:102420000323A8E12B4B1B6803F00203002BF0D021
:10243000284B1B6823F0F8027B681B69DB002549E9
:1024400013430B6015E0244B00221A60FEF74AFC90
:10245000386108E0FEF746FC02463B69D31A022BBE
:1024600001D9032387E11B4B1B6803F00203002BF8
:10247000F0D17B681B6803F00803002B36D07B6823
:102480005B69002B16D0154B01221A60FEF72AFC5F
:10249000386108E0FEF726FC02463B69D31A022B9E
:1024A00001D9032367E10B4B5B6F03F00203002BA1
:1024B000F0D01BE0094B00221A60FEF713FC3861D4
:1024C0000EE0FEF70FFC02463B69D31A022B07D938
:1024D000032350E10038024000004742800E47428B
:1024E000884B5B6F03F00203002BEAD17B681B680B
:1024F00003F00403002B00F097800023FB75814B51
:102500001B6C03F08053002B0FD10023BB607D4B6D
:102510001B6C7C4A43F0805313647A4B1B6C03F0B2
:102520008053BB60BB680123FB75774B1B6803F4CA
:102530008073002B18D1744B1B68734A43F480736B
:102540001360FEF7CFFB386108E0FEF7CBFB0246D5
:102550003B69D31A022B01D903230CE16A4B1B6898
:1025600003F48073002BF0D07B689B68012B06D1AD
:10257000644B1B6F634A43F0010313671CE07B68E5
:102580009B68052B0CD15F4B1B6F5E4A43F0040325
:1025900013675C4B1B6F5B4A43F0010313670BE04F
:1025A000584B1B6F574A23F001031367554B1B6FA2
:1025B000544A23F0040313677B689B68002B15D0F3
:1025C000FEF790FB38610AE0FEF78CFB02463B69A0
:1025D000D31A41F28832934201D90323CBE0494B0D
:1025E0001B6F03F00203002BEED014E0FEF77AFB22
:1025F00038610AE0FEF776FB02463B69D31A41F2E6
:102600008832934201D90323B5E03E4B1B6F03F0A0
:102610000203002BEED1FB7D012B05D1394B1B6C46
:10262000384A23F0805313647B689B69002B00F0C9
:10263000A180344B9B6803F00C03082B5CD07B68B3
:102640009B69022B41D1314B00221A60FEF74AFBF5
:10265000386108E0FEF746FB02463B69D31A022BBD
:1026600001D9032387E0274B1B6803F00073002B7D
:10267000F0D17B68DA697B681B6A1A437B685B6A06
:102680009B011A437B689B6A5B08013B1B041A434E
:102690007B68DB6A1B061B4913434B601B4B012203
:1026A0001A60FEF71FFB386108E0FEF71BFB0246CD
:1026B0003B69D31A022B01D903235CE0114B1B6841
:1026C00003F00073002BF0D054E0104B00221A608E
:1026D000FEF708FB386108E0FEF704FB02463B69A1
:1026E000D31A022B01D9032345E0064B1B6803F0E4
:1026F0000073002BF0D13DE07B689B69012B07D173
:10270000012338E00038024000700040600047427A
:102710001B4B5B68FB607B689B69012B28D0FB68C7
:1027200003F480027B68DB699A4221D1FB6803F0E5
:102730003F027B681B6A9A421AD1FA6847F6C07357
:1027400013407A68526A9201934211D1FB6803F4F4
:1027500040327B689B6A5B08013B1B049A4207D1AD
:10276000FB6803F070627B68DB6A1B069A4201D04B
:10277000012300E0002318461837BD4680BD00BF86
:102780000038024080B584B000AF786039607B6863
:10279000002B01D10123CCE0684B1B6803F0070339
:1027A0003A689A420CD9654B3A68D2B21A70634BB8
:1027B0001B6803F007033A689A4201D00123B8E08E
:1027C0007B681B6803F00203002B20D07B681B682A
:1027D00003F00403002B05D0594B9B68584A43F47F
:1027E000E05393607B681B6803F00803002B05D05F
:1027F000534B9B68524A43F460439360504B9B6831
:1028000023F0F0027B689B684D4913438B607B6823
:102810001B6803F00103002B44D07B685B68012B2D
:1028200007D1474B1B6803F40033002B19D1012358
:102830007FE07B685B68022B03D07B685B68032BBF
:1028400007D13F4B1B6803F00073002B09D1012314
:102850006FE03B4B1B6803F00203002B01D1012307
:1028600067E0374B9B6823F003027B685B68344961
:1028700013438B60FEF736FAF8600AE0FEF732FA8F
:102880000246FB68D31A41F28832934201D90323EE
:102890004FE02B4B9B6803F00C027B685B689B004E
:1028A0009A42EBD1254B1B6803F007033A689A4222
:1028B0000CD2224B3A68D2B21A70204B1B6803F03C
:1028C00007033A689A4201D0012332E07B681B6813
:1028D00003F00403002B08D0194B9B6823F4E0524B
:1028E0007B68DB68164913438B607B681B6803F0C9
:1028F0000803002B09D0124B9B6823F460427B68CD
:102900001B69DB000E4913438B6000F021F802467F
:102910000B4B9B681B0903F00F030A49CB5C22FA9F
:1029200003F3094A1360094B1B681846FEF796F932
:10293000002318461037BD4680BD00BF003C024052
:1029400000380240303A0008000000200400002057
:102950002DE9B04F90B000AF00237B630023FB63F1
:1029600000233B630023BB63594B9B6803F00C03BC
:10297000082B0DD0082B00F2A180002B02D0042BD5
:1029800003D09BE0534BBB639BE0534BBB6398E08E
:102990004F4B5B6803F03F037B634D4B5B6803F475
:1029A0008003002B28D04A4B5B689B0900223B62C6
:1029B0007A623B6AC3F308000021474B03FB01F234
:1029C000002300FB03F31344434AA0FB0212FA6204
:1029D0000A46BA62FA6A1344FB627B6B0022BB614F
:1029E000FA61D7E90623D7E90A01FDF749FC024657
:1029F0000B461346FB6353E0354B5B689B09002293
:102A00003B617A613B69C3F3080A4FF0000B524601
:102A10005B464FF000004FF00001590141EAD261DE
:102A2000500102460B46B2EB0A0863EB0B094FF06C
:102A300000024FF000034FEA891343EA98634FEA1C
:102A40008812B2EB080463EB09054FF000024FF067
:102A50000003EB0043EA5473E20014461D4614EBF6
:102A60000A033B6045EB0B037B604FF000024FF025
:102A70000003D7E9004529468B02214643EA9153DA
:102A800021468A02104619467B6B0022BB60FA6021
:102A9000D7E90223FDF7F4FB02460B461346FB631E
:102AA0000B4B5B681B0C03F0030301335B003B63C0
:102AB000FA6B3B6BB2FBF3F3BB6302E0054BBB630A
:102AC00000BFBB6B18464037BD46BDE8B08F00BFA6
:102AD000003802400024F40040787D0180B400AF4B
:102AE000034B1B681846BD465DF8047B704700BF6A
:102AF0000000002080B500AFFFF7F0FF0246054B55
:102B00009B689B0A03F007030349CB5C22FA03F39B
:102B1000184680BD00380240403A0008002310B536
:102B20000446C0E90033C0E9043383608181436611
:102B3000C2818361194608225C3000F006F90D4B12
:102B400063620D4BA3620D4BE3620D4B23630D4B90
:102B500024629C4206D003F16802944202D0D03332
:102B60009C4205D104F15800BDE8104000F066B960
:102B700010BD00BFC52C0008E72C00081F2D000861
:102B8000432D0008E0000020024A0349034800F0FA
:102B900069B800BF0C000020DD3600081C000020D2
:102BA00041680C4B994210B5044601D000F096FDE7
:102BB000A168094B994202D0204600F08FFDE168E0
:102BC000064B994204D02046BDE8104000F086BD77
:102BD00010BD00BFE000002048010020B00100202F
:102BE00010B50B4B0B4C0C4A1A60204600220421F6
:102BF000FFF794FF04F1680001220921FFF78EFF1F
:102C000004F1D0000222BDE810401221FFF786BF78
:102C100018020020E0000020892B0008014800F085
:102C20000EB900BF21020020014800F009B900BF21
:102C30002102002010B50446FFF7F0FF236A1BB104
:102C4000BDE81040FFF7F0BF044B2362044B1B6844
:102C5000002BF5D1FFF7C4FFF2E700BFA12B00085E
:102C6000180200202DE9F84307468846144600263E
:102C7000D4E90195B9F1010905D52468002CF7D1F3
:102C80003046BDE8F883AB89012B07D9B5F90E3082
:102C9000013303D029463846C04706436835E9E783
:102CA0000FB407B5064904AB086853F8042B8168D4
:102CB000019300F0E9F903B05DF804EB04B070474C
:102CC0001800002010B50C46B1F90E1000F068F89D
:102CD0000028ABBF636DA3891B1823F48053ACBFDE
:102CE0006365A38110BD2DE9F0411F468B89DB058B
:102CF00005460C46164605D5B1F90E1002230022F2
:102D000000F03CF8A389B4F90E1023F48053A3819A
:102D100032463B462846BDE8F04100F053B810B5B6
:102D20000C46B1F90E1000F029F8431CA38915BF19
:102D3000606523F4805343F48053A38118BFA381BB
:102D400010BDB1F90E1000F009B8024403469342D9
:102D500000D1704703F8011BF9E7000038B5064DB4
:102D60000023044608462B60FDF7B0FE431C02D149
:102D70002B6803B1236038BD1C02002038B5074D15
:102D800004460846114600222A601A46FDF7C5FE91
:102D9000431C02D12B6803B1236038BD1C02002004
:102DA00038B5074D04460846114600222A601A46E7
:102DB000FDF76FFE431C02D12B6803B1236038BDC1
:102DC0001C02002038B5074D044608461146002273
:102DD0002A601A46FDF77BFC431C02D12B6803B125
:102DE000236038BD1C020020014B1868704700BFEB
:102DF0001800002070B50D4D0D4C641BA41000266A
:102E0000A64209D10B4D0C4C00F0B8FD641BA41078
:102E10000026A64205D170BD55F8043B98470136FF
:102E2000EEE755F8043B98470136F2E7843A00088C
:102E3000843A0008843A0008883A000870477047CE
:102E40007047000038B50546002941D051F8043CD0
:102E50000C1F002BB8BFE41800F0E0F81D4A1368FF
:102E600033B9636014602846BDE8384000F0DCB830
:102E7000A34208D9206821188B4201BF19685B68FA
:102E800009182160EDE71A465B680BB1A342FAD935
:102E900011685018A0420BD1206801445018834299
:102EA0001160E0D118685B68536008441060DAE78D
:102EB00002D90C232B60D6E7206821188B4204BF6F
:102EC00019685B68636004BF091821605460CAE731
:102ED00038BD00BF2802002070B50F4E0C46316887
:102EE000054611B900F0B6FC30602146284600F0D6
:102EF000B1FC431C03D14FF0FF34204670BDC41C0D
:102F000024F00304A042F8D0211A284600F0A2FCC5
:102F10000130F2D1EFE700BF240200202DE9F84391
:102F2000CD1C25F0030508350C2D38BF0C25002DD0
:102F3000064601DBA94204D90C2333600020BDE81A
:102F4000F883DFF8D48000F069F8D8F800301C4628
:102F500044BB29463046FFF7BFFF431C044658D107
:102F6000D8F800402746002F43D1002C4BD02368CF
:102F70003946304604EB030900F06CFC814542D130
:102F800021686D1A29463046FFF7A6FF01303AD076
:102F900023682B442360D8F800305A6862BBC8F815
:102FA00000700FE02268521B20D40B2A17D9611938
:102FB000A342256018BF5960636808BFC8F80010B5
:102FC00062514B60304600F02FF804F10B00231DD6
:102FD00020F00700C21A1CBF1B1AA350AFE762689B
:102FE000A3420CBFC8F800205A60EBE72346646890
:102FF000AEE73C467F68B6E71A465B68A342FBD162
:1030000000235360DEE70C233360304600F00CF8F9
:1030100094E70560D6E700BF280200200148FFF7CB
:103020000EBF00BF200200200148FFF709BF00BF0C
:10303000200200209368013B002B10B4936008DA53
:103040009469A34201DB0A2903D15DF8044B00F027
:103050006DBB1368581C1060197008465DF8044B6E
:103060007047F8B506460F461446D518AC4201D154
:10307000002007E014F8011B3A463046FFF7DAFF5C
:10308000431CF3D1F8BD00002DE9F04F0D469DB073
:1030900014469846064618B1036A0BB9FFF7CAFDF5
:1030A0006B6ED90705D4AB899A0502D4A86DFFF7DA
:1030B000C6FEAB891B0701D52B699BB92946304653
:1030C00000F072FB70B16B6EDC0704D54FF0FF307F
:1030D0001DB0BDE8F08FAB899805F7D4A86DFFF758
:1030E000AFFEF3E70023099320238DF82930CDF8B4
:1030F0000C803023DFF8AC818DF82A304FF00109C5
:1031000023469A4613F8012B0AB1252AF9D1BAEBC6
:10311000040B0BD05B46224629463046FFF7A1FF41
:10312000013000F0A780099A5A4409929AF80030B9
:10313000002B00F09F8000234FF0FF32CDE90523E4
:103140000AF1010A049307938DF853301A935446F9
:10315000052214F8011B5348FDF742F8049AD8B928
:10316000D10644BF20238DF85330130744BF2B23CF
:103170008DF853309AF800302A2B15D0079A544610
:1031800000204FF00A0C214611F8013B303B092B7F
:103190004BD9B0B1079214E0A0EB080309FA03F38E
:1031A00013430493A246D2E7039B191D1B680391A6
:1031B000002BBBBF5B4242F0020207930793B8BFEC
:1031C000049223782E2B0AD163782A2B32D1039BC9
:1031D0001A1D1B68039243EAE37302340593DFF878
:1031E000D4A0217803225046FCF7FAFF38B1049BA3
:1031F000A0EB0A004022824013430134049314F8E8
:10320000011B29488DF828100622FCF7E9FF002849
:103210003FD0264B1BBB039B073323F00703083328
:103220000393099B3B4409936AE70CFB02320C466B
:103230000120A8E700230134059319464FF00A0C3A
:10324000204610F8012B303A092A03D9002BC6D0AA
:103250000591C4E70CFB012104460123F0E703AB11
:1032600000932A46124B04A93046AFF3008007466C
:10327000781CD6D16B6ED90705D4AB899A0502D4D8
:10328000A86DFFF7DDFDAB895B063FF51FAF099821
:103290001EE703AB00932A46054B04A9304600F015
:1032A00079F8E4E7483A0008523A000800000000C4
:1032B000633000084E3A00082DE9F047164698465C
:1032C0008A680B69DDF820909342B8BF13463360DB
:1032D00091F8432007460C460AB101333360236856
:1032E000990642BF336802333360256815F006053E
:1032F00006D104F1190AE36832689B1AAB4226DC56
:1033000094F843302268003B18BF012392062BD467
:1033100004F1430241463846C84701301ED02368B5
:10332000226903F00603042B02BFE5683368ED1A37
:10333000A3680CBF25EAE57500259342C4BF9B1A1C
:10334000ED1800261A34B5421AD1002008E00123F6
:10335000524641463846C847013003D14FF0FF304E
:10336000BDE8F0870135C6E7E1185A1C302081F826
:103370004300224494F8451082F843100233C7E713
:103380000123224641463846C8470130E6D001367F
:10339000D9E700002DE9FF470F7E0C9E782F91465C
:1033A00080460C469A4601F1430207D8622F0AD89C
:1033B000002F00F0D280582F00F0B98004F14206AF
:1033C00084F842703AE0A7F16303152BF6D801A107
:1033D00051F823F02D34000841340008BD330008B3
:1033E000BD330008BD330008BD3300084134000878
:1033F000BD330008BD330008BD330008BD330008ED
:10340000413500086B340008FB340008BD33000868
:10341000BD33000863350008BD3300086B34000875
:10342000BD330008BD3300080335000833681A1D9A
:103430001B68326004F1420684F8423001239DE0AB
:1034400033682068191D3160060601D51D6803E048
:103450004506FBD5B3F90050002D03DA2D236D424C
:1034600084F8433059480A2311E02168336808067C
:1034700053F8045B02D4490648BFADB26F2F5348DE
:10348000336014BF0A230823002184F843106668C0
:10349000A660002EA2BF216821F0040121600DB9B1
:1034A000002E4BD01646B5FBF3F103FB1157C75D59
:1034B00006F8017D2F46BB420D46F4D9082B0BD1EF
:1034C0002368DF0708D5236961689942DEBF30238E
:1034D00006F8013C06F1FF36921B2261CDF800A0F0
:1034E0004B4603AA21464046FFF7E6FE01304AD18B
:1034F0004FF0FF3004B0BDE8F087236843F02003AD
:1035000023603348782784F84570236831681F06A4
:1035100051F8045B02D45F0648BFADB23160D907F1
:1035200044BF43F0200323601DB11023ACE72748BC
:10353000E9E7236823F020032360F6E71646BDE79A
:10354000336825686169181D30602E061B6801D537
:10355000196002E06806FBD5198000232361164636
:10356000BCE733681A1D32601E686268002130466D
:10357000FCF736FE08B1801B60606368236100239E
:1035800084F84330AAE72369324649464046D0478B
:103590000130ADD023689B0713D4E068039B9842A9
:1035A000B8BF1846A6E70123324649464046D047F1
:1035B00001309DD00135E36803995B1AAB42F2DC20
:1035C000EBE7002504F11906F5E700BF593A0008BA
:1035D0006A3A0008B1F90C202DE9F04116070546BA
:1035E0000C4654D44B68002B02DC0B6C002B48DDDE
:1035F000E66A002E45D0002312F480522F68216A1B
:103600002B6030D0626DA389590705D56368D21A43
:10361000636B0BB1236CD21A0023E66A216A284639
:10362000B047431CA38906D129681D292BD82A4AF3
:103630000A41D60727D400226260D9042269226099
:1036400004D5421C01D12B6803B96065616B2F6002
:10365000B9B104F14403994202D02846FFF7F2FBC6
:10366000002363630DE001232846B0470246501C47
:10367000C9D12B68002BC6D01D2B01D0162B1ED113
:103680002F60002022E043F040031BB21BE00F69D3
:10369000002FF6D093070E6808BF4B690F6018BF64
:1036A0000023A6EB07088B60B8F1000FE9DD216A63
:1036B000A66A43463A462846B047002808DCB4F9D3
:1036C0000C3043F04003A3814FF0FF30BDE8F081A0
:1036D0000744A8EB0008E7E7FEFFBFDF38B50B693A
:1036E00005460C4613B90025284638BD18B1036AB3
:1036F0000BB9FFF79FFAB4F90C30002BF3D0626ED0
:10370000D00704D4990502D4A06DFFF798FB284692
:103710002146FFF75FFF636EDA070546E4D4A3890D
:103720009B05E1D4A06DFFF78BFBDDE7F8B50E46F6
:103730001446054618B1036A0BB9FFF77BFAA36973
:10374000A360A3891A0701D5236943B921462846F6
:1037500000F02AF818B14FF0FF373846F8BD23685B
:103760002269981A6369F6B28342374605DC21461E
:103770002846FFF7B3FF0028EDD1A368013BA36003
:1037800023685A1C22601E706269431C9A4204D04E
:10379000A389DB07E1D50A2EDFD121462846FFF7B2
:1037A0009DFF0028D9D0D6E738B5294B05461868C3
:1037B0000C4618B1036A0BB9FFF73CFAB4F90C30A8
:1037C000190722D4DA0607D409222A6043F04003FD
:1037D000A3814FF0FF3033E0580712D5616B41B140
:1037E00004F14403994202D02846FFF72BFB002343
:1037F0006363A38923F02403A38100236360236907
:103800002360A38943F00803A38123694BB9A389EB
:1038100003F42073B3F5007F03D02146284600F05F
:103820004FF8B4F90C3013F001020AD00022A26064
:1038300062695242A261226942B913F08000C5D187
:1038400038BD990758BF6269A260F4E70020F7E726
:103850001800002038B5064D0023044608462B60AA
:10386000FDF768F9431C02D12B6803B1236038BD12
:103870001C02002070B50C46B1F90E10002996B05C
:1038800015461E460DDAA38913F0800F4FF0000194
:1038900014BF40234FF48063002031602B6016B0CA
:1038A00070BD6A4600F048F80028ECDB019901F48D
:1038B0007041A1F50053594259414FF48063EBE741
:1038C0008B89F7B59D0706460C4607D504F14703DB
:1038D000236023610123636103B0F0BD01AB6A463D
:1038E000FFF7C8FF009F054639463046FFF716FB35
:1038F00048B9B4F90C309A05EED423F0030343F031
:103900000203A381E2E7A389206043F08003A3813F
:10391000019BC4E904075BB1B4F90E10304600F016
:103920001DF828B1A38923F0030343F00103A38109
:10393000A3891D43A581CFE738B5074D0023044671
:10394000084611462B60FDF7CDF8431C02D12B68C9
:1039500003B1236038BD00BF1C02002038B5064DFE
:103960000023044608462B60FDF7CCF8431C02D127
:103970002B6803B1236038BD1C020020F8B500BFDE
:10398000F8BC08BC9E467047F8B500BFF8BC08BC40
:043990009E46704798
:103994000A0A3D3D204144445245535320256420A6
:1039A4003D3D00000A25642057726974653A20255C
:1039B400640000000A256420526561643A2025648D
:1039C400000000005772697465204572726F7200BE
:1039D4000A0A4E6577205768696C65204C6F6F70D2
:1039E400000000000A454550524F4D20436865636E
:1039F4006B20506173736564000000000A454550F4
:103A0400524F4D20436865636B204661696C656461
:103A1400000000000A556E6B6E6F776E206572723F
:103A24006F72206F6363757272656400000000003A
:103A3400000000000102030406070809000000005A
:103A440001020304232D302B2000686C4C006566B2
:103A540067454647003031323334353637383941DB
:103A640042434445460030313233343536373839F1
:083A74006162636465660000F5
:083A7C0064C7FF7F0100000098
:043A8400C501000870
:043A8800A101000890
:103A8C000024F40010000000010000000000000001
:103A9C0003000000E00000201C00002000000000DB
:103AAC00E000002048010020B001002000000000D0
:103ABC0000000000000000000000000000000000FA
:103ACC0000000000000000000000000000000000EA
:103ADC0000000000000000000000000000000000DA
:083AEC000000000000000000D2
:0400000508000BC51F
:00000001FF
