:020000040800F2
:1000000000000220691800089116000899160008DF
:10001000A1160008A9160008B1160008000000008B
:10002000000000000000000000000000B9160008F9
:10003000C716000800000000D5160008E3160008E7
:10004000B9180008B9180008B9180008B91800084C
:10005000B9180008B9180008B9180008B91800083C
:10006000B9180008B9180008B9180008B91800082C
:10007000B9180008B9180008B9180008B91800081C
:10008000B9180008B9180008B918000800000000E5
:10009000000000000000000000000000B918000887
:1000A000B9180008B9180008B9180008B9180008EC
:1000B000B9180008B9180008B9180008B9180008DC
:1000C000B9180008B9180008B9180008B9180008CC
:1000D000B9180008B9180008B91800080000000095
:1000E000B9180008B9180008B91800080000000085
:1000F000000000000000000000000000B918000827
:1001000000000000B9180008B9180008B918000864
:1001100000000000000000000000000000000000DF
:10012000B9180008B9180008B9180008B91800086B
:10013000B9180008000000000000000000000000E6
:10014000000000000000000000000000B9180008D6
:10015000B9180008B9180008B9180008B91800083B
:10016000B9180008B91800080000000000000000DD
:10017000000000000000000000000000000000007F
:1001800000000000B9180008000000000000000096
:08019000B9180008B9180008B5
:1001A00010B5054C237833B9044B13B10448AFF3B1
:1001B00000800123237010BDD40100200000000046
:1001C000BC7E000808B5034B1BB103490348AFF3DD
:1001D000008008BD00000000D8010020BC7E00089F
:1001E00001F0FF01102A2BDB10F0070F08D010F8E8
:1001F000013B013A8B422DD010F0070F42B3F6D1EC
:10020000F0B441EA012141EA014122F007047FF004
:1002100000070023F0E80256083C85EA010586EA5B
:10022000010685FA47F5A3FA87F586FA47F6A5FA97
:1002300087F68EB9EED1F0BC01F0FF0102F00702A3
:1002400032B110F8013B013A83EA010313B1F8D14E
:100250000020704701387047002D06BF354603382F
:10026000073815F0010F07D1013015F4807F02BF68
:10027000013015F4C03F0130F0BC0138704700BFB9
:10028000034613F8012B002AFBD1181A01387047D6
:1002900081F0004102E000BF83F0004330B54FEA37
:1002A00041044FEA430594EA050F08BF90EA020FA4
:1002B0001FBF54EA000C55EA020C7FEA645C7FEA37
:1002C000655C00F0E2804FEA5454D4EB5555B8BF5A
:1002D0006D420CDD2C4480EA020281EA030382EACB
:1002E000000083EA010180EA020281EA0303362D5D
:1002F00088BF30BD11F0004F4FEA01314FF4801C30
:100300004CEA113102D0404261EB410113F0004F41
:100310004FEA03334CEA133302D0524263EB4303F8
:1003200094EA050F00F0A780A4F10104D5F1200E96
:100330000DDB02FA0EFC22FA05F2801841F10001F1
:1003400003FA0EF2801843FA05F359410EE0A5F1C5
:1003500020050EF1200E012A03FA0EFC28BF4CF0F6
:10036000020C43FA05F3C01851EBE37101F00045AC
:1003700007D54FF0000EDCF1000C7EEB00006EEBB9
:100380000101B1F5801F1BD3B1F5001F0CD3490843
:100390005FEA30004FEA3C0C04F101044FEA44529A
:1003A00012F5800F80F09A80BCF1004F08BF5FEA21
:1003B000500C50F1000041EB045141EA050130BD01
:1003C0005FEA4C0C404141EB0101013C28BFB1F513
:1003D000801FE9D291F0000F04BF01460020B1FA5E
:1003E00081F308BF2033A3F10B03B3F120020CDA31
:1003F0000C3208DD02F1140CC2F10C0201FA0CF00F
:1004000021FA02F10CE002F11402D8BFC2F1200C73
:1004100001FA02F120FA0CFCDCBF41EA0C01904029
:10042000E41AA2BF01EB0451294330BD6FEA040472
:100430001F3C1CDA0C340EDC04F11404C4F120025D
:1004400020FA04F001FA02F340EA030021FA04F36F
:1004500045EA030130BDC4F10C04C4F1200220FAC6
:1004600002F001FA04F340EA0300294630BD21FA04
:1004700004F0294630BD94F0000F83F4801306BFCA
:1004800081F480110134013D4EE77FEA645C18BFBE
:100490007FEA655C29D094EA050F08BF90EA020F55
:1004A00005D054EA000C04BF1946104630BD91EA4D
:1004B000030F1EBF0021002030BD5FEA545C05D150
:1004C0004000494128BF41F0004130BD14F580048F
:1004D0003CBF01F5801130BD01F0004545F0FE4103
:1004E00041F470014FF0000030BD7FEA645C1ABF38
:1004F000194610467FEA655C1CBF0B46024650EA6F
:10050000013406BF52EA033591EA030F41F400219A
:1005100030BD00BF90F0000F04BF0021704730B520
:100520004FF4806404F132044FF000054FF00001F5
:1005300050E700BF90F0000F04BF0021704730B5B6
:100540004FF4806404F1320410F0004548BF40428B
:100550004FF000013EE700BF42004FEAE2014FEAE0
:1005600031014FEA02701FBF12F07F4393F07F4FBB
:1005700081F06051704732F07F4208BF704793F0BE
:100580007F4F04BF41F40021704730B54FF46074D1
:1005900001F0004521F000411CE700BF50EA0102D4
:1005A00008BF704730B54FF000050AE050EA01027D
:1005B00008BF704730B511F0004502D5404261EBED
:1005C00041014FF4806404F132045FEA915C3FF42E
:1005D000D8AE4FF003025FEADC0C18BF03325FEACB
:1005E000DC0C18BF033202EBDC02C2F1200300FA7C
:1005F00003FC20FA02F001FA03FE40EA0E0021FAA1
:1006000002F11444BDE600BF70B54FF0FF0C4CF48E
:10061000E06C1CEA11541DBF1CEA135594EA0C0F40
:1006200095EA0C0F00F0DEF82C4481EA030621EA7B
:100630004C5123EA4C5350EA013518BF52EA0335B6
:1006400041F4801143F4801338D0A0FB02CE4FF068
:100650000005E1FB02E506F00042E0FB03E54FF098
:100660000006E1FB03569CF0000F18BF4EF0010E90
:10067000A4F1FF04B6F5007F64F5407404D25FEA8C
:100680004E0E6D4146EB060642EAC62141EA55513F
:100690004FEAC52040EA5E504FEACE2EB4F1FD0C81
:1006A00088BFBCF5E06F1ED8BEF1004F08BF5FEAFF
:1006B000500E50F1000041EB045170BD06F00046B1
:1006C00046EA010140EA020081EA0301B4EB5C045E
:1006D000C2BFD4EB0C0541EA045170BD41F4801156
:1006E0004FF0000E013C00F3AB8014F1360FDEBF7B
:1006F000002001F0004170BDC4F10004203C35DA57
:100700000C341BDC04F11404C4F1200500FA05F3D9
:1007100020FA04F001FA05F240EA020001F000427A
:1007200021F0004110EBD37021FA04F642EB0601F0
:100730005EEA430E08BF20EAD37070BDC4F10C041A
:10074000C4F1200500FA04F320FA05F001FA04F2DE
:1007500040EA020001F0004110EBD37041F10001CA
:100760005EEA430E08BF20EAD37070BDC4F12005D5
:1007700000FA05F24EEA020E20FA04F301FA05F23D
:1007800043EA020321FA04F001F0004121FA04F2E5
:1007900020EA020000EBD3705EEA430E08BF20EAB5
:1007A000D37070BD94F0000F0FD101F000464000EF
:1007B00041EB010111F4801F08BF013CF7D041EA71
:1007C000060195F0000F18BF704703F00046520075
:1007D00043EB030313F4801F08BF013DF7D043EA46
:1007E0000603704794EA0C0F0CEA135518BF95EAFC
:1007F0000C0F0CD050EA410618BF52EA4306D1D183
:1008000081EA030101F000414FF0000070BD50EAA1
:10081000410606BF1046194652EA430619D094EA2B
:100820000C0F02D150EA013613D195EA0C0F05D115
:1008300052EA03361CBF104619460AD181EA030169
:1008400001F0004141F0FE4141F470014FF0000021
:1008500070BD41F0FE4141F4780170BD70B54FF0BC
:10086000FF0C4CF4E06C1CEA11541DBF1CEA13553C
:1008700094EA0C0F95EA0C0F00F0A7F8A4EB05041E
:1008800081EA030E52EA03354FEA013100F0888015
:100890004FEA03334FF0805545EA131343EA1263DE
:1008A0004FEA022245EA111545EA10654FEA002693
:1008B0000EF000419D4208BF964244F1FD0404F54C
:1008C000407402D25B084FEA3202B61A65EB0305A8
:1008D0005B084FEA32024FF480104FF4002CB6EB65
:1008E000020E75EB030E22BFB61A754640EA0C00E5
:1008F0005B084FEA3202B6EB020E75EB030E22BF25
:10090000B61A754640EA5C005B084FEA3202B6EB65
:10091000020E75EB030E22BFB61A754640EA9C0024
:100920005B084FEA3202B6EB020E75EB030E22BFF4
:10093000B61A754640EADC0055EA060E18D04FEAB2
:10094000051545EA16754FEA06164FEAC30343EA52
:1009500052734FEAC2025FEA1C1CC0D111F4801F1F
:100960000BD141EA00014FF000004FF0004CB6E718
:1009700011F4801F04BF01430020B4F1FD0C88BFB7
:10098000BCF5E06F3FF6AFAEB5EB030C04BFB6EBC2
:10099000020C5FEA500C50F1000041EB045170BDB5
:1009A0000EF0004E4EEA113114EB5C04C2BFD4EBE2
:1009B0000C0541EA045170BD41F480114FF0000E66
:1009C000013C90E645EA060E8DE60CEA135594EAE2
:1009D0000C0F08BF95EA0C0F3FF43BAF94EA0C0FE5
:1009E0000AD150EA01347FF434AF95EA0C0F7FF45A
:1009F00025AF104619462CE795EA0C0F06D152EAAE
:100A000003353FF4FDAE1046194622E750EA410691
:100A100018BF52EA43067FF4C5AE50EA41047FF4A2
:100A20000DAF52EA43057FF4EBAE12E74FF0FF3C07
:100A300006E000BF4FF0010C02E000BF4FF0010CD8
:100A40004DF804CD4FEA410C7FEA6C5C4FEA430C51
:100A500018BF7FEA6C5C1BD001B050EA410C0CBFA0
:100A600052EA430C91EA030F02BF90EA020F002002
:100A7000704710F1000F91EA030F58BF994208BF69
:100A800090422CBFD8176FEAE37040F00100704726
:100A90004FEA410C7FEA6C5C02D150EA013C07D17D
:100AA0004FEA430C7FEA6C5CD6D152EA033CD3D0C8
:100AB0005DF8040B704700BF8446104662468C46C2
:100AC0001946634600E000BF01B5FFF7B7FF0028F5
:100AD00048BF10F1000F01BD4DF808EDFFF7F4FF1E
:100AE0000CBF012000205DF808FB00BF4DF808EDA9
:100AF000FFF7EAFF34BF012000205DF808FB00BFCC
:100B00004DF808EDFFF7E0FF94BF012000205DF8ED
:100B100008FB00BF4DF808EDFFF7CEFF94BF0120A2
:100B200000205DF808FB00BF4DF808EDFFF7C4FF9B
:100B300034BF012000205DF808FB00BF4FEA410CE4
:100B40007FEA6C5C02D150EA013C0AD14FEA430CC7
:100B50007FEA6C5C02D152EA033C02D14FF0000004
:100B600070474FF0010070474FEA410212F5001242
:100B700015D211D56FF47873B3EB625212D94FEAE4
:100B8000C12343F0004343EA505311F0004F23FACE
:100B900002F018BF404270474FF00000704750EA23
:100BA000013005D111F0004008BF6FF000407047E0
:100BB0004FF00000704700BF4A0011D212F500123A
:100BC00011D20DD56FF47873B3EB62520ED44FEAA5
:100BD000C12343F0004343EA505323FA02F0704725
:100BE0004FF00000704750EA013002D14FF0FF3063
:100BF00070474FF0000070474FEA4102B2F1E04306
:100C000024BFB3F5001CDCF1FE5C0DD901F0004CF3
:100C10004FEAC0024CEA5070B2F1004F40EB830043
:100C200008BF20F00100704711F0804F21D113F16F
:100C30003872BCBF01F00040704741F480114FEAA8
:100C40005252C2F11802C2F1200C10FA0CF320FA31
:100C500002F018BF40F001004FEAC1234FEAD3234E
:100C600003FA0CFC40EA0C0023FA02F34FEA4303B8
:100C7000CCE77FEA625307D150EA01331EBF4FF041
:100C8000FE4040F44000704701F0004040F0FE405C
:100C900040F40000704700BF53B94AB9002908BFAB
:100CA00000281CBF4FF0FF314FF0FF3000F0A0B91B
:100CB000ADF1080C6DE904CE00F03CF8DDF804E07D
:100CC000DDE9022304B0704738B500220023044652
:100CD0000D46FFF70BFF28B920462946BDE83840EE
:100CE00000F00AB8204605F1004100F005F8404246
:100CF00061EB410138BD00BFD0B50C4B0022064668
:100D00000F46FFF781FCFFF757FF0446FFF702FC91
:100D1000074B0022FFF778FC02460B463046394667
:100D2000FFF7BAFAFFF748FF2146D0BD0000F03DBB
:100D30000000F0412DE9F047089D0C46002B4ED1F4
:100D400094468C458646B2FA82F262D94AB1C2F123
:100D50002003914020FA03F30CFA02FC194300FA35
:100D600002FE4FEA1C471FFA8CF6B1FBF7F44FEA7C
:100D70001E4307FB141143EA014304FB06F19942A9
:100D80000AD91CEB030304F1FF3080F01281994271
:100D900040F20F81023C6344591A1FFA8EF3B1FBF3
:100DA000F7F007FB101143EA014300FB06F69E42F1
:100DB0000AD91CEB030300F1FF3180F0FC809E4256
:100DC00040F2F980634402389B1B40EA0440002152
:100DD0001DB1D3400022C5E90032BDE8F0878B4247
:100DE00005D90DB1C5E9000100210846F5E7B3FAC0
:100DF00083F1002946D1A34202D39042C0F0F08093
:100E0000861A64EB03030120002DE6D0C5E90063D8
:100E1000E3E7002A40F09080A1EB0C044FEA1C4865
:100E20001FFA8CF70121B4FBF8F64FEA1E4308FBCA
:100E3000164443EA044307FB06F0984208D91CEB2A
:100E4000030306F1FF3402D2984200F2CD80264619
:100E50001C1A1FFA8EF3B4FBF8F008FB104443EAA7
:100E6000044300FB07F79F4208D91CEB030300F182
:100E7000FF3402D29F4200F2B0802046DB1B40EAE2
:100E80000640A5E7C1F120068B4022FA06F71F4372
:100E900020FA06FC04FA01F343EA0C03F44000FADA
:100EA00001F8380C4FEA1349B4FBF0FE1FFA87FC37
:100EB00000FB1E4449EA04440EFB0CF9A14502FA6A
:100EC00001F20AD93C190EF1FF3A80F08480A14565
:100ED00040F28180AEF1020E3C44A4EB09041FFAFB
:100EE00083F9B4FBF0F300FB134449EA044403FB29
:100EF0000CFCA44507D93C1903F1FF3067D2A44587
:100F000065D9023B3C4443EA0E40A0FB0293A4EBAC
:100F10000C049C42CE469C4651D34ED055B1B8EB02
:100F20000E0364EB0C0404FA06F6CB401E43CC40DF
:100F3000C5E90064002150E7C2F1200320FA03F163
:100F40000CFA02FC24FA03F394400C434FEA1C48C9
:100F500000FA02FE1FFA8CF7B3FBF8F008FB103121
:100F6000230C43EA014300FB07F1994208D91CEB2B
:100F7000030300F1FF362CD299422AD90238634488
:100F80005B1AA4B2B3FBF8F108FB113344EA034443
:100F900001FB07F3A34208D91CEB040401F1FF365F
:100FA00013D2A34211D902396444E41A41EA004140
:100FB00039E70446F0E6084606E7C845AED2B9EB85
:100FC000020E63EB070C0138A8E73146EDE7034654
:100FD00099E73046D4E7D6467FE7634402384DE7C9
:100FE0000646234608460FE7023E634430E700BF4B
:100FF000704700BF90B59FB000AF00237B6730E023
:101000007B6F87F86D30796F654803F007FB7B6F66
:101010009BB297F86D201146184600F0F9F897F842
:101020006D301A46796F5F4803F0F8FA7B6F9BB218
:10103000184600F0D1F8034687F86C3097F86C300A
:101040001A46796F584803F0E9FA97F86C2097F838
:101050006D309A4201D001239DE07B6F03F57A73D6
:101060007B677B6FB3F5004FCAD301237B674123B6
:1010700087F873307B6F9BB297F873201146184640
:1010800000F0C6F87B6F9BB2184600F0A5F8034647
:1010900087F8723097F872301946444803F0BEFA68
:1010A0000121434803F0BAFA02237B67414B07F161
:1010B0005C040FCB07C4238007F15C031846FFF7DD
:1010C000DFF803469BB20133A7F870307B6F9BB209
:1010D000B7F8702007F15C01184600F0DEF87B6F6E
:1010E0009BB2B7F8702007F14801184600F0B6F837
:1010F00007F148031946304803F090FAB7F870300A
:1011000019462E4803F08AFA42F211737B672C4B82
:101110007B647B6F9BB207F144010422184600F008
:10112000BCF800233B647B6F9BB207F140010422B3
:10113000184600F093F83B6C1946224803F06EFA0B
:101140000421214803F06AFA44F62163A7F86E30BF
:101150001E4BFB634FF00003BB6307F13C01B7F884
:101160006E300422184600F098F807F13801B7F8FD
:101170006E300422184600F071F8BB6B1846FFF77A
:10118000EBF902460B46124803F048FA04211148D5
:1011900003F044FA002318467C37BD4690BD00BFDB
:1011A000D87E0008EC7E0008FC7E00080C7F00085A
:1011B000247F0008EC7F0008447F0008647F00085B
:1011C000D2029649807F0008947F0008D00F4940E2
:1011D000B07F0008D07F000880B588B004AF034618
:1011E000FB800023FB73FA880A23029301230193F7
:1011F00007F10F0300931023A021044801F0B6F873
:10120000FB7B18461037BD4680BD00BFF0010020B3
:1012100080B586B004AF03460A46FB8013467B7157
:10122000FA8864230293012301937B1D009310230A
:10123000A021084800F0A0FF0346002B02D006487A
:1012400003F0ECF9052000F0ABFB00BF0837BD460A
:1012500080BD00BFF0010020FC7F000890B583B086
:1012600000AF03463960FB801346BB800DE0FB886E
:101270005A1CFA803C68621C3A601846FFF7ACFFC3
:1012800003462370BB88013BBB80BB88002BEED19B
:1012900000BF00BF0C37BD4690BD80B582B000AF27
:1012A00003463960FB801346BB800CE03B681A782C
:1012B000FB8811461846FFF7ABFFFB880133FB8024
:1012C0003B6801333B60BB885A1EBA80002BEDD1CE
:1012D00000BF00BF0837BD4680BD80B483B000AFFB
:1012E00078604FF06043D3F8803E03F00103002B99
:1012F00013D04FF06043D3F8003E03F00103002BFE
:101300000BD000E000BF4FF060431B68002BF9D00A
:101310004FF060437A68D2B21A707B6818460C3777
:10132000BD465DF8047B704780B586B000AFF860BD
:10133000B9607A6000237B6100237B6109E0BB68B0
:101340005A1CBA601B781846FFF7C7FF7B69013348
:101350007B617A697B689A42F1DB7B6818461837B3
:10136000BD4680BD80B582B000AF00F0A7FA00F0A6
:101370002BF800F0B5F800F085F8FFF73BFE0346C8
:10138000FB71FB79002B03D10B4803F047F909E00F
:10139000FB79012B03D1094803F040F902E008482A
:1013A00003F03CF9074803F039F94FF47A7000F084
:1013B000F7FA00BFF6E700BF0880000820800008A9
:1013C000388000085480000880B594B000AF07F161
:1013D000200330220021184603F095F907F10C0391
:1013E00000221A605A609A60DA601A610023BB60BA
:1013F000224B1B6C214A43F0805313641F4B1B6C20
:1014000003F08053BB60BB6800237B601C4B1B68F0
:101410001B4A43F440431360194B1B6803F44043D9
:101420007B607B6802233B620123FB6210233B63EA
:101430000023BB6307F12003184601F07DFD03463E
:10144000002B01D000F09CF80F23FB6000233B61D0
:1014500000237B610023BB610023FB6107F10C03C8
:101460000021184601F0E0FF0346002B01D000F0F8
:1014700087F800BF5037BD4680BD00BF003802402E
:101480000070004080B500AF124B134A1A60114B38
:10149000124A5A600F4B00229A600E4B0022DA600B
:1014A0000C4B4FF480421A610A4B00225A61094BDF
:1014B00000229A61074B0022DA61064B00221A6271
:1014C000044800F015FD0346002B01D000F058F849
:1014D00000BF80BDF001002000580040A086010040
:1014E00080B588B000AF07F10C0300221A605A6083
:1014F0009A60DA601A610023BB601F4B1B6B1E4AA7
:1015000043F0800313631C4B1B6B03F08003BB6031
:10151000BB6800237B60184B1B6B174A43F0010329
:101520001363154B1B6B03F001037B607B68002387
:101530003B60114B1B6B104A43F0020313630E4BCD
:101540001B6B03F002033B603B68002210210B4839
:1015500000F0B4FC1023FB6001233B6100237B619E
:101560000023BB6107F10C031946044800F022FB7D
:1015700000BF2037BD4680BD003802400000024059
:1015800080B400AF72B600BF00BFFDE780B483B087
:1015900000AF00237B60104B5B6C0F4A43F4804329
:1015A00053640D4B5B6C03F480437B607B680023CA
:1015B0003B60094B1B6C084A43F080531364064B95
:1015C0001B6C03F080533B603B6800BF0C37BD468B
:1015D0005DF8047B704700BF0038024080B58AB0D8
:1015E00000AF786007F1140300221A605A609A6015
:1015F000DA601A617B681B68224A93423DD100235E
:101600003B61214B1B6B204A43F0020313631E4BCB
:101610001B6B03F002033B613B694FF480637B610A
:101620001223BB610023FB6103233B6204237B6223
:1016300007F114031946154800F0BCFA4FF4007383
:101640007B611223BB610023FB6103233B620923FF
:101650007B6207F1140319460C4800F0ABFA002333
:10166000FB60094B1B6C084A43F480031364064B70
:101670001B6C03F48003FB60FB6800BF2837BD468A
:1016800080BD00BF00580040003802400004024006
:1016900080B400AF00BFFDE780B400AF00BFFDE73E
:1016A00080B400AF00BFFDE780B400AF00BFFDE72E
:1016B00080B400AF00BFFDE780B400AF00BFBD46FF
:1016C0005DF8047B704780B400AF00BFBD465DF895
:1016D000047B704780B400AF00BFBD465DF8047B5B
:1016E000704780B500AF00F03BF900BF80BD80B40B
:1016F00000AF01231846BD465DF8047B704780B5F6
:1017000082B000AF7860396003F050F803461622CB
:101710001A604FF0FF3318460837BD4680BD80B5CC
:1017200082B000AF78604FF0FF317868FFF7E7FFD5
:1017300000BFFDE780B586B000AFF860B9607A60A1
:1017400000237B610AE0AFF300800146BB685A1CAE
:10175000BA60CAB21A707B6901337B617A697B68AF
:101760009A42F0DB7B6818461837BD4680BD80B4CE
:1017700083B000AF78604FF0FF3318460C37BD469A
:101780005DF8047B704780B483B000AF7860396047
:101790003B684FF400525A60002318460C37BD4690
:1017A0005DF8047B704780B483B000AF786001239C
:1017B00018460C37BD465DF8047B704780B485B091
:1017C00000AFF860B9607A60002318461437BD4650
:1017D0005DF8047B7047000080B586B000AF78608C
:1017E000144A154BD31A7B617B693B61134B1B6811
:1017F000002B02D1114B124A1A60104B1A687B68F9
:1018000013443A699A4207D202F0D0FF03460C22F1
:101810001A604FF0FF3309E0084B1B68FB60074B71
:101820001A687B681344054A1360FB68184618372A
:10183000BD4680BD000002200004000044020020DC
:101840009803002080B400AF064BD3F88830054AD7
:1018500043F47003C2F8883000BFBD465DF8047BD6
:10186000704700BF00ED00E0DFF834D0FFF7EAFF7B
:101870000C480D490D4A002302E0D458C4500433EB
:10188000C4188C42F9D30A4A0A4C002301E01360C1
:101890000432A242FBD302F08FFFFFF763FD7047D3
:1018A0000000022000000020D4010020C0840008B5
:1018B000D401002098030020FEE7000080B500AFAF
:1018C0000E4B1B680D4A43F4007313600B4B1B68EF
:1018D0000A4A43F480631360084B1B68074A43F4C9
:1018E00080731360032000F031F90F2000F008F836
:1018F000FFF74CFE0023184680BD00BF003C0240AD
:1019000080B582B000AF7860124B1A68124B1B781A
:1019100019464FF47A73B3FBF1F3B2FBF3F31846B5
:1019200000F03BF90346002B01D001230EE07B6859
:101930000F2B0AD8002279684FF0FF3000F011F920
:10194000064A7B681360002300E00123184608372D
:10195000BD4680BD000000200800002004000020DB
:1019600080B400AF064B1B781A46064B1B68134425
:10197000044A136000BFBD465DF8047B704700BF9A
:10198000080000204802002080B400AF034B1B6811
:101990001846BD465DF8047B704700BF4802002032
:1019A00080B584B000AF7860FFF7EEFFB8607B6869
:1019B000FB60FB68B3F1FF3F05D00A4B1B781A466A
:1019C000FB681344FB6000BFFFF7DEFF0246BB6805
:1019D000D31AFA689A42F7D800BF00BF1037BD4645
:1019E00080BD00BF0800002080B485B000AF7860E3
:1019F0007B6803F00703FB600C4BDB68BB60BA68D5
:101A00004FF6FF031340BB60FB681A02BB68134329
:101A100043F0BF6343F40033BB60044ABB68D36048
:101A200000BF1437BD465DF8047B704700ED00E051
:101A300080B400AF044BDB681B0A03F007031846B1
:101A4000BD465DF8047B704700ED00E080B483B0D4
:101A500000AF03463960FB7197F90730002B0ADBB2
:101A60003B68DAB20C4997F907301201D2B20B4445
:101A700083F800230AE03B68DAB20849FB7903F0F7
:101A80000F03043B1201D2B20B441A7600BF0C378D
:101A9000BD465DF8047B704700E100E000ED00E02A
:101AA00080B489B000AFF860B9607A60FB6803F079
:101AB0000703FB61FB69C3F10703042B28BF042361
:101AC000BB61FB690433062B02D9FB69033B00E0D1
:101AD00000237B614FF0FF32BB6902FA03F3DA4364
:101AE000BB681A407B699A404FF0FF317B6901FA6D
:101AF00003F3D9437B680B40134318462437BD4694
:101B00005DF8047B7047000080B582B000AF78605C
:101B10007B68013BB3F1807F01D301230FE00A4AC8
:101B20007B68013B53600F214FF0FF30FFF78EFFC2
:101B3000054B00229A60044B07221A6000231846C6
:101B40000837BD4680BD00BF10E000E080B582B020
:101B500000AF78607868FFF747FF00BF0837BD46E1
:101B600080BD80B586B000AF0346B9607A60FB7374
:101B700000237B61FFF75CFF78617A68B968786958
:101B8000FFF78EFF024697F90F3011461846FFF710
:101B90005DFF00BF1837BD4680BD80B582B000AF85
:101BA00078607868FFF7B0FF034618460837BD46EF
:101BB00080BD000080B489B000AF78603960002338
:101BC0007B6100233B610023BB610023FB6159E182
:101BD0000122FB6902FA03F37B613B681B687A69A7
:101BE00013403B613A697B699A4240F048813B6807
:101BF0005B6803F00303012B05D03B685B6803F0CF
:101C00000303022B30D17B689B68BB61FB695B00DF
:101C1000032202FA03F3DB43BA691340BB613B685A
:101C2000DA68FB695B0002FA03F3BA691343BB612C
:101C30007B68BA699A607B685B68BB610122FB695B
:101C400002FA03F3DB43BA691340BB613B685B688C
:101C50001B0903F00102FB6902FA03F3BA6913439B
:101C6000BB617B68BA695A603B685B6803F0030339
:101C7000032B17D07B68DB68BB61FB695B00032229
:101C800002FA03F3DB43BA691340BB613B689A680D
:101C9000FB695B0002FA03F3BA691343BB617B681B
:101CA000BA69DA603B685B6803F00303022B23D157
:101CB000FB69DA087B68083253F82230BB61FB69A4
:101CC00003F007039B000F2202FA03F3DB43BA6918
:101CD0001340BB613B681A69FB6903F007039B0073
:101CE00002FA03F3BA691343BB61FB69DA087B6844
:101CF0000832B96943F822107B681B68BB61FB6935
:101D00005B00032202FA03F3DB43BA691340BB61B1
:101D10003B685B6803F00302FB695B0002FA03F3B4
:101D2000BA691343BB617B68BA691A603B685B6838
:101D300003F44033002B00F0A2800023FB60574BDC
:101D40005B6C564A43F480435364544B5B6C03F41E
:101D50008043FB60FB68524AFB699B08023352F8E0
:101D60002330BB61FB6903F003039B000F2202FADF
:101D700003F3DB43BA691340BB617B68494A934272
:101D800019D07B68484A934213D07B68474A9342F4
:101D90000DD07B68464A934207D07B68454A934200
:101DA00001D1042308E0072306E0032304E0022313
:101DB00002E0012300E00023FA6902F0030292002E
:101DC0009340BA691343BB613549FB699B080233F1
:101DD000BA6941F82320384B9B68BB613B69DB4300
:101DE000BA691340BB613B685B6803F48013002B46
:101DF00003D0BA693B691343BB612F4ABB69936047
:101E00002D4BDB68BB613B69DB43BA691340BB61A7
:101E10003B685B6803F40013002B03D0BA693B698D
:101E20001343BB61244ABB69D360234B5B68BB612E
:101E30003B69DB43BA691340BB613B685B6803F4F1
:101E40000033002B03D0BA693B691343BB611A4AC4
:101E5000BB695360184B1B68BB613B69DB43BA69C4
:101E60001340BB613B685B6803F48033002B03D0F5
:101E7000BA693B691343BB610F4ABB691360FB69D5
:101E80000133FB61FB690F2B7FF6A2AE00BF00BFE1
:101E90002437BD465DF8047B704700BF0038024020
:101EA00000380140000002400004024000080240E7
:101EB000000C024000100240003C014080B483B09E
:101EC00000AF78600B467B8013467B707B78002BDD
:101ED00003D07A887B689A6103E07B881A047B6868
:101EE0009A6100BF0C37BD465DF8047B7047000067
:101EF00080B584B000AF78607B68002B01D10123EE
:101F00002BE17B6893F83D30DBB2002B06D17B6878
:101F1000002283F83C207868FFF760FB7B6824226E
:101F200083F83D207B681B681A687B681B6822F079
:101F300001021A607B681B681A687B681B6842F4A0
:101F400000421A607B681B681A687B681B6822F471
:101F500000421A6001F020FCF8607B685B68814AEF
:101F6000934207D8FB68804A934294BF0123002321
:101F7000DBB206E0FB687D4A934294BF0123002355
:101F8000DBB2002B01D00123E7E0FB68784AA2FB1B
:101F900003239B0CBB607B681B685B6823F03F01DD
:101FA0007B681B68BA680A435A607B681B681B6AB7
:101FB00023F03F017B685B686A4A934202D8BB68A2
:101FC000013309E0BB684FF4967202FB03F3694AE0
:101FD000A2FB03239B0901337A6812680B43136247
:101FE0007B681B68DB6923F44F4222F0FF027B68A9
:101FF0005B685C498B4219D8FB68591E7B685B683B
:102000005B00B1FBF3F3591C40F6FC730B40002B53
:102010000AD0FB68591E7B685B685B00B1FBF3F379
:102020000133C3F30B0351E004234FE07B689B684B
:10203000002B11D1FB68581E7B6859680B465B006A
:102040000B44B0FBF3F30133C3F30B03002B0CBFC2
:1020500001230023DBB212E0FB68581E7B6859683D
:102060000B469B000B4499000B44B0FBF3F3013388
:10207000C3F30B03002B0CBF01230023DBB2002BA7
:1020800001D0012322E07B689B68002B0ED1FB6806
:10209000581E7B6859680B465B000B44B0FBF3F39A
:1020A0000133C3F30B0343F400430FE0FB68581EF6
:1020B0007B6859680B469B000B4499000B44B0FBAE
:1020C000F3F30133C3F30B0343F440437968096826
:1020D0001343CB617B681B681B6823F0C0017B68DE
:1020E000DA697B681B6A1A437B681B680A431A60BB
:1020F0007B681B689B6823F4034323F0FF037A6823
:1021000011697A68D26811437A6812680B43936048
:102110007B681B68DB6823F0FF017B685A697B687A
:102120009B691A437B681B680A43DA607B681B68FB
:102130001A687B681B6842F001021A607B68002203
:102140001A647B68202283F83D207B6800221A6392
:102150007B68002283F83E20002318461037BD46D6
:1021600080BD00BFA08601007F841E00FF083D00E7
:1021700083DE1B43D34D621080B588B002AFF86098
:10218000084611461A4603467B810B463B8113469F
:10219000FB80FFF7F9FB7861FB6893F83D30DBB219
:1021A000202B40F0D9807B690093192301226D49CF
:1021B000F86800F08BFC0346002B01D00223CCE032
:1021C000FB6893F83C30012B01D10223C5E0FB688A
:1021D000012283F83C20FB681B681B6803F00103A5
:1021E000012B07D0FB681B681A68FB681B6842F06C
:1021F00001021A60FB681B681A68FB681B6822F4FE
:1022000000621A60FB68212283F83D20FB684022AF
:1022100083F83E20FB6800221A64FB683A6A5A621F
:10222000FB68BA8C5A85FB685B8D9AB2FB681A858D
:10223000FB684D4ADA62F8883A8979897B690193AB
:10224000BB6A00930346F86800F0C2FA0346002B0D
:1022500052D0012381E07A69B96AF86800F050FD34
:102260000346002B0DD0FB681B6C042B07D1FB68C9
:102270001B681A68FB681B6842F400721A6001232D
:102280006BE0FB685B6A1A78FB681B681A61FB6885
:102290005B6A5A1CFB685A62FB681B8D013B9AB251
:1022A000FB681A85FB685B8D9BB2013B9AB2FB68A9
:1022B0005A85FB681B685B6903F00403042B1BD180
:1022C000FB681B8D002B17D0FB685B6A1A78FB68D4
:1022D0001B681A61FB685B6A5A1CFB685A62FB68E0
:1022E0001B8D013B9AB2FB681A85FB685B8D9BB224
:1022F000013B9AB2FB685A85FB681B8D002BAAD163
:102300007A69B96AF86800F043FD0346002B0DD0E6
:10231000FB681B6C042B07D1FB681B681A68FB6801
:102320001B6842F400721A60012316E0FB681B6808
:102330001A68FB681B6842F400721A60FB6820226E
:1023400083F83D20FB68002283F83E20FB680022D2
:1023500083F83C20002300E0022318461837BD46CE
:1023600080BD00BF020010000000FFFF80B58CB0F0
:1023700002AFF860084611461A4603467B810B46B9
:102380003B811346FB80FFF7FFFA7862FB6893F806
:102390003D30DBB2202B40F014827B6A009319237E
:1023A00001227B49F86800F091FB0346002B01D025
:1023B000022307E2FB6893F83C30012B01D1022392
:1023C00000E2FB68012283F83C20FB681B681B6865
:1023D00003F00103012B07D0FB681B681A68FB6838
:1023E0001B6842F001021A60FB681B681A68FB68F0
:1023F0001B6822F400621A60FB68222283F83D20E9
:10240000FB68402283F83E20FB6800221A64FB68C8
:102410003A6B5A62FB68BA8E5A85FB685B8D9AB23A
:10242000FB681A85FB685B4ADA62F8883A89798921
:102430007B6A0193BB6B00930346F86800F05EFA79
:102440000346002B01D00123BCE1FB681B8D002B50
:1024500013D100233B62FB681B685B693B62FB682E
:102460001B689B693B623B6AFB681B681A68FB68D8
:102470001B6842F400721A6090E1FB681B8D012B0F
:102480001BD1FB681B681A68FB681B6822F480621A
:102490001A600023FB61FB681B685B69FB61FB68DA
:1024A0001B689B69FB61FB69FB681B681A68FB681A
:1024B0001B6842F400721A6070E1FB681B8D022BEE
:1024C0001BD1FB681B681A68FB681B6822F48062DA
:1024D0001A60FB681B681A68FB681B6842F400629C
:1024E0001A600023BB61FB681B685B69BB61FB680A
:1024F0001B689B69BB61BB6950E100237B61FB6882
:102500001B685B697B61FB681B689B697B617B69FE
:1025100044E1FB681B8D032B00F2F180FB681B8DEF
:10252000012B23D17A6AB96BF86800F079FC034675
:10253000002B01D0012345E1FB681B681A69FB6889
:102540005B6AD2B21A70FB685B6A5A1CFB685A62FB
:10255000FB681B8D013B9AB2FB681A85FB685B8D9B
:102560009BB2013B9AB2FB685A8517E1FB681B8D51
:10257000022B4ED17B6A0093BB6B00220649F868A0
:1025800000F0A4FA0346002B08D001231AE100BF93
:10259000020010000000FFFF04000100FB681B6840
:1025A0001A68FB681B6842F400721A60FB681B68BB
:1025B0001A69FB685B6AD2B21A70FB685B6A5A1CC4
:1025C000FB685A62FB681B8D013B9AB2FB681A8557
:1025D000FB685B8D9BB2013B9AB2FB685A85FB6836
:1025E0001B681A69FB685B6AD2B21A70FB685B6A87
:1025F0005A1CFB685A62FB681B8D013B9AB2FB6850
:102600001A85FB685B8D9BB2013B9AB2FB685A85C9
:10261000C4E07B6A0093BB6B00226C49F86800F051
:1026200055FA0346002B01D00123CBE0FB681B6861
:102630001A68FB681B6822F480621A60FB681B68DA
:102640001A69FB685B6AD2B21A70FB685B6A5A1C33
:10265000FB685A62FB681B8D013B9AB2FB681A85C6
:10266000FB685B8D9BB2013B9AB2FB685A857B6A23
:102670000093BB6B00225549F86800F027FA034627
:10268000002B01D001239DE0FB681B681A68FB68E2
:102690001B6842F400721A60FB681B681A69FB68C9
:1026A0005B6AD2B21A70FB685B6A5A1CFB685A629A
:1026B000FB681B8D013B9AB2FB681A85FB685B8D3A
:1026C0009BB2013B9AB2FB685A85FB681B681A698A
:1026D000FB685B6AD2B21A70FB685B6A5A1CFB68C3
:1026E0005A62FB681B8D013B9AB2FB681A85FB6836
:1026F0005B8D9BB2013B9AB2FB685A854EE07A6AC9
:10270000B96BF86800F08CFB0346002B01D0012365
:1027100058E0FB681B681A69FB685B6AD2B21A70E2
:10272000FB685B6A5A1CFB685A62FB681B8D013BA5
:102730009AB2FB681A85FB685B8D9BB2013B9AB22B
:10274000FB685A85FB681B685B6903F00403042B74
:1027500024D1FB681B8D032B07D1FB681B681A680B
:10276000FB681B6822F480621A60FB681B681A69A8
:10277000FB685B6AD2B21A70FB685B6A5A1CFB6822
:102780005A62FB681B8D013B9AB2FB681A85FB6895
:102790005B8D9BB2013B9AB2FB685A85FB681B8D2F
:1027A000002B7FF4B6AEFB68202283F83D20FB6847
:1027B000002283F83E20FB68002283F83C2000239F
:1027C00000E0022318462837BD4680BD0400010002
:1027D00080B588B002AFF860084611461A46034635
:1027E0007B810B463B811346FB80FB681B681A68A4
:1027F000FB681B6842F480721A607B6A00933B6A34
:1028000000224FF00111F86800F060F90346002B38
:102810000DD0FB681B681B6803F48073B3F5807FE1
:1028200003D1FB684FF400721A6403235FE07B89D5
:10283000DBB21A46FB681B6802F0FE021A617B6A73
:102840003A6A2D49F86800F0BBF90346002B01D025
:1028500001234CE000237B61FB681B685B697B61A3
:10286000FB681B689B697B617B697A6A396AF868D7
:1028700000F046FA0346002B0DD0FB681B6C042BBE
:1028800007D1FB681B681A68FB681B6842F400727A
:102890001A6001232BE0FB88012B05D13B89DAB2BA
:1028A000FB681B681A6121E03B891B0A9BB2DAB204
:1028B000FB681B681A617A6A396AF86800F020FAC6
:1028C0000346002B0DD0FB681B6C042B07D1FB6863
:1028D0001B681A68FB681B6842F400721A600123C7
:1028E00005E03B89DAB2FB681B681A6100231846D1
:1028F0001837BD4680BD00BF0200010080B588B01A
:1029000002AFF860084611461A4603467B810B4623
:102910003B811346FB80FB681B681A68FB681B68D9
:1029200042F480621A60FB681B681A68FB681B68C7
:1029300042F480721A607B6A00933B6A00224FF077
:102940000111F86800F0C2F80346002B0DD0FB68B7
:102950001B681B6803F48073B3F5807F03D1FB68A9
:102960004FF400721A640323AAE07B89DBB21A4693
:10297000FB681B6802F0FE021A617B6A3A6A5249E0
:10298000F86800F01DF90346002B01D0012397E001
:1029900000237B61FB681B685B697B61FB681B68CC
:1029A0009B697B617B697A6A396AF86800F0A8F9EB
:1029B0000346002B0DD0FB681B6C042B07D1FB6872
:1029C0001B681A68FB681B6842F400721A600123D6
:1029D00076E0FB88012B05D13B89DAB2FB681B68E6
:1029E0001A6121E03B891B0A9BB2DAB2FB681B68C3
:1029F0001A617A6A396AF86800F082F90346002B96
:102A00000DD0FB681B6C042B07D1FB681B681A6890
:102A1000FB681B6842F400721A60012350E03B8996
:102A2000DAB2FB681B681A617A6A396AF86800F0E2
:102A300067F90346002B0DD0FB681B6C042B07D1F4
:102A4000FB681B681A68FB681B6842F400721A6016
:102A5000012335E0FB681B681A68FB681B6842F4B9
:102A600080721A607B6A00933B6A00224FF001116A
:102A7000F86800F02BF80346002B0DD0FB681B68AC
:102A80001B6803F48073B3F5807F03D1FB684FF4B8
:102A900000721A64032313E07B89DBB243F0010365
:102AA000DAB2FB681B681A617B6A3A6A0649F86801
:102AB00000F086F80346002B01D0012300E000233C
:102AC00018461837BD4680BD0200010080B584B0AD
:102AD00000AFF860B9603B601346FB7148E03B68AB
:102AE000B3F1FF3F44D0FEF74FFF0246BB69D31A54
:102AF0003A689A4202D33B68002B39D1BB681B0C61
:102B0000DBB2012B0DD1FB681B685B69DA43BB6844
:102B100013409BB2002B0CBF01230023DBB21A46EB
:102B20000CE0FB681B689B69DA43BB6813409BB2EF
:102B3000002B0CBF01230023DBB21A46FB799A421B
:102B400016D1FB6800221A63FB68202283F83D201F
:102B5000FB68002283F83E20FB681B6C43F02002D8
:102B6000FB681A64FB68002283F83C20012323E001
:102B7000BB681B0CDBB2012B0DD1FB681B685B69CA
:102B8000DA43BB6813409BB2002B0CBF0123002328
:102B9000DBB21A460CE0FB681B689B69DA43BB6832
:102BA00013409BB2002B0CBF01230023DBB21A465B
:102BB000FB799A4293D0002318461037BD4680BD5A
:102BC00080B584B000AFF860B9607A603B6071E0B6
:102BD000FB681B685B6903F48063B3F5806F23D1E6
:102BE000FB681B681A68FB681B6842F400721A6075
:102BF000FB681B686FF480625A61FB6800221A63ED
:102C0000FB68202283F83D20FB68002283F83E20E9
:102C1000FB681B6C43F00402FB681A64FB6800222B
:102C200083F83C20012367E07B68B3F1FF3F41D08C
:102C3000FEF7AAFE02463B68D31A7A689A4202D38C
:102C40007B68002B36D1BB681B0CDBB2012B0CD18F
:102C5000FB681B685B69DA43BB6813409BB2002BBF
:102C600014BF01230023DBB20BE0FB681B689B69E8
:102C7000DA43BB6813409BB2002B14BF012300232F
:102C8000DBB2002B16D0FB6800221A63FB682022FF
:102C900083F83D20FB68002283F83E20FB681B6C14
:102CA00043F02002FB681A64FB68002283F83C2092
:102CB000012321E0BB681B0CDBB2012B0CD1FB68AC
:102CC0001B685B69DA43BB6813409BB2002B14BFDF
:102CD00001230023DBB20BE0FB681B689B69DA432E
:102CE000BB6813409BB2002B14BF01230023DBB24F
:102CF000002B7FF46DAF002318461037BD4680BD12
:102D000080B584B000AFF860B9607A6034E0F868EC
:102D100000F0E3F80346002B01D0012334E0BB6848
:102D2000B3F1FF3F28D0FEF72FFE02467B68D31A8F
:102D3000BA689A4202D3BB68002B1DD1FB681B689E
:102D40005B6903F08003802B16D0FB6800221A63B6
:102D5000FB68202283F83D20FB68002283F83E2098
:102D6000FB681B6C43F02002FB681A64FB680022BE
:102D700083F83C20012307E0FB681B685B6903F0D4
:102D80008003802BC3D1002318461037BD4680BD79
:102D900080B584B000AFF860B9607A6034E0F8685C
:102DA00000F09BF80346002B01D0012334E0BB6800
:102DB000B3F1FF3F28D0FEF7E7FD02467B68D31A48
:102DC000BA689A4202D3BB68002B1DD1FB681B680E
:102DD0005B6903F00403042B16D0FB6800221A631E
:102DE000FB68202283F83D20FB68002283F83E2008
:102DF000FB681B6C43F02002FB681A64FB6800222E
:102E000083F83C20012307E0FB681B685B6903F043
:102E10000403042BC3D1002318461037BD4680BDE0
:102E200080B584B000AFF860B9607A6049E0FB68B3
:102E30001B685B6903F01003102B19D1FB681B683A
:102E40006FF010025A61FB6800221A63FB682022AF
:102E500083F83D20FB68002283F83E20FB681A6C53
:102E6000FB681A64FB68002283F83C20012330E0F1
:102E7000FEF78AFD02467B68D31ABA689A4202D3EB
:102E8000BB68002B1DD1FB681B685B6903F0400326
:102E9000402B16D0FB6800221A63FB68202283F8BF
:102EA0003D20FB68002283F83E20FB681B6C43F04A
:102EB0002002FB681A64FB68002283F83C2001238F
:102EC00007E0FB681B685B6903F04003402BAED151
:102ED000002318461037BD4680BD80B483B000AFD4
:102EE00078607B681B685B6903F48063B3F5806F6F
:102EF0001BD17B681B686FF480625A617B6800227B
:102F00001A637B68202283F83D207B68002283F8C7
:102F10003E207B681B6C43F004027B681A647B686C
:102F2000002283F83C20012300E0002318460C37E0
:102F3000BD465DF8047B704780B586B000AF786011
:102F40007B68002B01D1012367E27B681B6803F0DB
:102F50000103002B75D0884B9B6803F00C03042BF6
:102F60000CD0854B9B6803F00C03082B12D1824BCD
:102F70005B6803F48003B3F5800F0BD17E4B1B68B5
:102F800003F40033002B5BD07B685B68002B57D1C8
:102F9000012342E27B685B68B3F5803F06D1764B44
:102FA0001B68754A43F4803313601DE07B685B68DF
:102FB000B3F5A02F0CD1704B1B686F4A43F48023EC
:102FC00013606D4B1B686C4A43F4803313600BE055
:102FD000694B1B68684A23F480331360664B1B6897
:102FE000654A23F4802313607B685B68002B13D051
:102FF000FEF7CAFC386108E0FEF7C6FC02463B69F2
:10300000D31A642B01D9032307E25B4B1B6803F43B
:103010000033002BF0D014E0FEF7B6FC386108E076
:10302000FEF7B2FC02463B69D31A642B01D9032395
:10303000F3E1514B1B6803F40033002BF0D100E0A7
:1030400000BF7B681B6803F00203002B63D04A4B70
:103050009B6803F00C03002B0BD0474B9B6803F0DD
:103060000C03082B1CD1444B5B6803F48003002B3A
:1030700016D1414B1B6803F00203002B05D07B687F
:10308000DB68012B01D00123C7E13B4B1B6823F018
:10309000F8027B681B69DB00374913430B603AE099
:1030A0007B68DB68002B20D0344B01221A60FEF7CE
:1030B0006BFC386108E0FEF767FC02463B69D31AF7
:1030C000022B01D90323A8E12B4B1B6803F0020359
:1030D000002BF0D0284B1B6823F0F8027B681B699B
:1030E000DB00254913430B6015E0244B00221A60D6
:1030F000FEF74AFC386108E0FEF746FC02463B69F1
:10310000D31A022B01D9032387E11B4B1B6803F061
:103110000203002BF0D17B681B6803F00803002B2F
:1031200036D07B685B69002B16D0154B01221A60E4
:10313000FEF72AFC386108E0FEF726FC02463B69F0
:10314000D31A022B01D9032367E10B4B5B6F03F00A
:103150000203002BF0D01BE0094B00221A60FEF79F
:1031600013FC38610EE0FEF70FFC02463B69D31AF0
:10317000022B07D9032350E10038024000004742E8
:10318000800E4742884B5B6F03F00203002BEAD1AD
:103190007B681B6803F00403002B00F0978000237A
:1031A000FB75814B1B6C03F08053002B0FD1002368
:1031B000BB607D4B1B6C7C4A43F0805313647A4B9D
:1031C0001B6C03F08053BB60BB680123FB75774B1E
:1031D0001B6803F48073002B18D1744B1B68734A6F
:1031E00043F480731360FEF7CFFB386108E0FEF70D
:1031F000CBFB02463B69D31A022B01D903230CE116
:103200006A4B1B6803F48073002BF0D07B689B68CB
:10321000012B06D1644B1B6F634A43F00103136714
:103220001CE07B689B68052B0CD15F4B1B6F5E4AD3
:1032300043F0040313675C4B1B6F5B4A43F00103CD
:1032400013670BE0584B1B6F574A23F001031367BA
:10325000554B1B6F544A23F0040313677B689B682C
:10326000002B15D0FEF790FB38610AE0FEF78CFBCF
:1032700002463B69D31A41F28832934201D90323B3
:10328000CBE0494B1B6F03F00203002BEED014E0A0
:10329000FEF77AFB38610AE0FEF776FB02463B69EF
:1032A000D31A41F28832934201D90323B5E03E4B51
:1032B0001B6F03F00203002BEED1FB7D012B05D128
:1032C000394B1B6C384A23F0805313647B689B692D
:1032D000002B00F0A180344B9B6803F00C03082BFB
:1032E0005CD07B689B69022B41D1314B00221A6074
:1032F000FEF74AFB386108E0FEF746FB02463B69F1
:10330000D31A022B01D9032387E0274B1B6803F054
:103310000073002BF0D17B68DA697B681B6A1A4363
:103320007B685B6A9B011A437B689B6A5B08013B75
:103330001B041A437B68DB6A1B061B4913434B6063
:103340001B4B01221A60FEF71FFB386108E0FEF7F5
:103350001BFB02463B69D31A022B01D903235CE015
:10336000114B1B6803F00073002BF0D054E0104B9E
:1033700000221A60FEF708FB386108E0FEF704FB44
:1033800002463B69D31A022B01D9032345E0064BC1
:103390001B6803F00073002BF0D13DE07B689B6954
:1033A000012B07D1012338E00038024000700040B3
:1033B000600047421B4B5B68FB607B689B69012B8D
:1033C00028D0FB6803F480027B68DB699A4221D134
:1033D000FB6803F03F027B681B6A9A421AD1FA68C5
:1033E00047F6C07313407A68526A9201934211D132
:1033F000FB6803F440327B689B6A5B08013B1B045B
:103400009A4207D1FB6803F070627B68DB6A1B0697
:103410009A4201D0012300E0002318461837BD4628
:1034200080BD00BF0038024080B584B000AF786036
:1034300039607B68002B01D10123CCE0684B1B680D
:1034400003F007033A689A420CD9654B3A68D2B246
:103450001A70634B1B6803F007033A689A4201D065
:103460000123B8E07B681B6803F00203002B20D027
:103470007B681B6803F00403002B05D0594B9B6845
:10348000584A43F4E05393607B681B6803F00803D9
:10349000002B05D0534B9B68524A43F46043936022
:1034A000504B9B6823F0F0027B689B684D491343A7
:1034B0008B607B681B6803F00103002B44D07B68A2
:1034C0005B68012B07D1474B1B6803F40033002BCB
:1034D00019D101237FE07B685B68022B03D07B68F6
:1034E0005B68032B07D13F4B1B6803F00073002B75
:1034F00009D101236FE03B4B1B6803F00203002B53
:1035000001D1012367E0374B9B6823F003027B68FE
:103510005B68344913438B60FEF736FAF8600AE0C3
:10352000FEF732FA0246FB68D31A41F28832934220
:1035300001D903234FE02B4B9B6803F00C027B68FF
:103540005B689B009A42EBD1254B1B6803F0070395
:103550003A689A420CD2224B3A68D2B21A70204B87
:103560001B6803F007033A689A4201D0012332E056
:103570007B681B6803F00403002B08D0194B9B6881
:1035800023F4E0527B68DB68164913438B607B6849
:103590001B6803F00803002B09D0124B9B6823F42F
:1035A00060427B681B69DB000E4913438B6000F0AF
:1035B00021F802460B4B9B681B0903F00F030A49D5
:1035C000CB5C22FA03F3094A1360094B1B681846C7
:1035D000FEF796F9002318461037BD4680BD00BFA0
:1035E000003C0240003802406880000800000020D3
:1035F000040000202DE9B04F90B000AF00237B63A2
:103600000023FB6300233B630023BB63594B9B6890
:1036100003F00C03082B0DD0082B00F2A180002B27
:1036200002D0042B03D09BE0534BBB639BE0534B76
:10363000BB6398E04F4B5B6803F03F037B634D4BEC
:103640005B6803F48003002B28D04A4B5B689B091E
:1036500000223B627A623B6AC3F308000021474BB9
:1036600003FB01F2002300FB03F31344434AA0FBD6
:103670000212FA620A46BA62FA6A1344FB627B6B70
:103680000022BB61FA61D7E90623D7E90A01FDF7F9
:1036900003FB02460B461346FB6353E0354B5B6866
:1036A0009B0900223B617A613B69C3F3080A4FF032
:1036B000000B52465B464FF000004FF000015901ED
:1036C00041EAD261500102460B46B2EB0A0863EBB5
:1036D0000B094FF000024FF000034FEA891343EA51
:1036E00098634FEA8812B2EB080463EB09054FF0C8
:1036F00000024FF00003EB0043EA5473E20014466B
:103700001D4614EB0A033B6045EB0B037B604FF057
:1037100000024FF00003D7E9004529468B022146FD
:1037200043EA915321468A02104619467B6B0022D8
:10373000BB60FA60D7E90223FDF7AEFA02460B46FA
:103740001346FB630B4B5B681B0C03F00303013355
:103750005B003B63FA6B3B6BB2FBF3F3BB6302E0D2
:10376000054BBB6300BFBB6B18464037BD46BDE889
:10377000B08F00BF003802400024F40040787D0183
:1037800080B400AF034B1B681846BD465DF8047B50
:10379000704700BF0000002080B500AFFFF7F0FFCA
:1037A0000246054B9B689B0A03F007030349CB5C69
:1037B00022FA03F3184680BD0038024078800008E2
:1037C0002DE9FF4757EC106B002F0C4619463B467E
:1037D000BBBF07F100431F4600232D230B700D9B39
:1037E000DDF830A0914623F02008BCBF32461646D3
:1037F000B8F1460F05D0B8F1450F00D101340221D0
:1038000000E0032103AB019302AB009347EC106B84
:103810005346224601F088F8B8F1470F054619D102
:1038200019F0010F0ED000EB0409002200233046EE
:103830003946FDF751F908B1CDF80C903022039BC1
:103840004B451ED3039B0E9A5B1B2846136004B0A6
:10385000BDE8F087B8F1460F00EB0409E5D1037825
:10386000302B0AD10022002330463946FDF734F9C7
:1038700018B9C4F10104CAF80040DAF800309944DC
:10388000D3E7591C03911A70D9E7F7B50029BABFDD
:1038900049422D232B2309290270437029DD0DF1A4
:1038A00007031D460A271A46B1FBF7F607FB161455
:1038B000303402F8014C0C46632C03F1FF333146DF
:1038C000F1DC3031941E03F8011C411C2346AB424D
:1038D0000AD30DF109039B1AAC4288BF00230233BF
:1038E0000344181A03B0F0BD13F8016B01F8016F1F
:1038F000EDE7302330318370C170031DF1E7000024
:103900002DE9F04F8DB00C46DDF8588016461F4665
:10391000054600F001FF036804931846FCF7B0FC6D
:1039200000230A93D8F800300590073323F00703EB
:1039300003F1080294F818A0D4F800B0C8F80020E9
:10394000D3E9008929F000430793CDF81880C4E932
:103950001289DDE906019C4B4FF0FF32FDF7EEF8CE
:1039600070BBDDE90601984B4FF0FF32FDF7C8F858
:1039700030BB0022002340464946FDF7B7F810B19E
:103980002D2384F84330914A914BBAF1470F94BFED
:1039900090469846032323612BF0040323604FF0E5
:1039A0000009009733460BAA2146284600F0D2F9B9
:1039B000013040F08D804FF0FF300DB0BDE8F08F4A
:1039C00042464B4640464946FDF7B8F840B14B46A3
:1039D000002BBCBF2D2384F843307E4A7E4BD4E7B6
:1039E00063680AF0DF0206925A1C3BD1062363602B
:1039F0004BF480620023226003930AABCDE901A35C
:103A000009AB0093616849EC108B0DF12303284644
:103A1000FFF7D6FE069B0999472B804629D1C81C83
:103A200002DB6368994241DDAAF1020A5FFA8AFA71
:103A30000139524604F150000991FFF726FF0A9A16
:103A40001318012A8146236102DC2268D20701D5BE
:103A5000013323619DF82330002BA2D02D2384F85D
:103A600043309EE7069A472AC2D1002BC0D10123DA
:103A7000BDE7BAF1650FDBD9BAF1660F18D100299D
:103A800063680BDD216113B92268D00702D50133C9
:103A90000B442361A1654FF00009DBE713B92268ED
:103AA000D20701D50233F4E70123F2E74FF0670AAA
:103AB0000A9B994205DB23682161D807EAD54B1C94
:103AC000E7E70029D4BFC1F1020201221344E0E775
:103AD00023685A0507D42369424631462846B84729
:103AE00001302BD167E7BAF1650F40F2DD80D4E9F0
:103AF000120100220023FCF7EFFF002833D0374AE1
:103B0000012331462846B84701303FF454AFDDE980
:103B10000938434502DB2368D8070FD5DDE90423C4
:103B200031462846B84701303FF445AF4FF0000911
:103B300008F1FF3804F11A0AC84509DC23689B071D
:103B400000F10381E0680B9B9842B8BF184634E748
:103B50000123524631462846B84701303FF42BAF87
:103B600009F10109E8E7099B002B39DC1B4A012315
:103B700031462846B84701303FF41DAFDDE9093929
:103B800059EA030302D12368D907D7D5DDE9042315
:103B900031462846B84701303FF40DAF4FF0000AD8
:103BA00004F11A0B099B5B42534501DC4B4693E73A
:103BB00001235A4631462846B84701303FF4FBAE50
:103BC0000AF1010AEEE700BFFFFFEF7F80800008E7
:103BD00084800008888000088C800008908000089D
:103BE000A36DDDF828A05345A8BF5346002B994686
:103BF00036DC4FF0000B29EAE97904F11A02A36DD3
:103C00000693A3EB09035B4531DC099B9A453ADC3B
:103C10002368DA0737D4099BAAEB0309069BAAEBB2
:103C200003039945A8BF9946B9F1000F33DC4FF063
:103C3000000829EAE97904F11A0B099BAAEB0303AE
:103C4000A3EB090343457FF779AF01235A46314679
:103C50002846B84701303FF4AEAE08F10108ECE762
:103C6000424631462846B8470130C2D1A3E6012377
:103C7000314628460692B84701303FF49CAE069A7A
:103C80000BF1010BBBE7DDE9042331462846B847B9
:103C90000130C0D18FE6069A4B4642443146284651
:103CA000B8470130C3D186E6DDF828A0BAF1010F8C
:103CB00001DCDB0736D50123424631462846B847AA
:103CC00001303FF478AEDDE9042331462846B84799
:103CD00001303FF470AED4E91201002200230AF152
:103CE000FF3AFCF7F9FEC0B9534608F1010231462C
:103CF0002846B84701300CD15DE601235A463146CB
:103D00002846B84701303FF456AE08F10108D045C7
:103D1000F3DB4B4604F15002DFE64FF0000804F1FC
:103D20001A0BF4E701234246E1E701234A463146F4
:103D30002846B84701303FF43EAE08F10108E36879
:103D40000B995B1A4345F0DCFCE64FF0000804F1E8
:103D50001909F4E72DE9F047164698468A680B6979
:103D6000DDF820909342B8BF1346336091F84320AA
:103D700007460C460AB1013333602368990642BFF7
:103D8000336802333360256815F0060506D104F167
:103D9000190AE36832689B1AAB4226DC94F8433078
:103DA0002268003B18BF012392062BD404F1430282
:103DB00041463846C84701301ED02368226903F0C7
:103DC0000603042B02BFE5683368ED1AA3680CBF35
:103DD00025EAE57500259342C4BF9B1AED1800261D
:103DE0001A34B5421AD1002008E001235246414658
:103DF0003846C847013003D14FF0FF30BDE8F087A7
:103E00000135C6E7E1185A1C302081F843002244EE
:103E100094F8451082F843100233C7E70123224685
:103E200041463846C8470130E6D00136D9E70000A0
:103E30002DE9FF470F7E0C9E782F914680460C4659
:103E40009A4601F1430207D8622F0AD8002F00F0EA
:103E5000D280582F00F0B98004F1420684F84270F5
:103E60003AE0A7F16303152BF6D801A151F823F02E
:103E7000C93E0008DD3E0008593E0008593E0008D2
:103E8000593E0008593E0008DD3E0008593E000832
:103E9000593E0008593E0008593E0008DD3F000821
:103EA000073F0008973F0008593E0008593E0008A8
:103EB000FF3F0008593E0008073F0008593E000830
:103EC000593E00089F3F000833681A1D1B68326086
:103ED00004F1420684F8423001239DE033682068F3
:103EE000191D3160060601D51D6803E04506FBD5A6
:103EF000B3F90050002D03DA2D236D4284F84330CE
:103F000059480A2311E021683368080653F8045B16
:103F100002D4490648BFADB26F2F5348336014BF77
:103F20000A230823002184F843106668A660002E47
:103F3000A2BF216821F0040121600DB9002E4BD0F1
:103F40001646B5FBF3F103FB1157C75D06F8017D7B
:103F50002F46BB420D46F4D9082B0BD12368DF074F
:103F600008D5236961689942DEBF302306F8013C19
:103F700006F1FF36921B2261CDF800A04B4603AA42
:103F800021464046FFF7E6FE01304AD14FF0FF30B0
:103F900004B0BDE8F087236843F020032360334872
:103FA000782784F84570236831681F0651F8045B50
:103FB00002D45F0648BFADB23160D90744BF43F0B9
:103FC000200323601DB11023ACE72748E9E72368ED
:103FD00023F020032360F6E71646BDE73368256823
:103FE0006169181D30602E061B6801D5196002E05A
:103FF0006806FBD51980002323611646BCE73368A9
:104000001A1D32601E68626800213046FCF7E8F82D
:1040100008B1801B606063682361002384F843302B
:10402000AAE72369324649464046D0470130ADD021
:1040300023689B0713D4E068039B9842B8BF1846D7
:10404000A6E70123324649464046D04701309DD07D
:104050000135E36803995B1AAB42F2DCEBE700251C
:1040600004F11906F5E700BF92800008A38000085C
:104070002DE9F04F87B0174603938B685A1EB2F5AF
:10408000AE7F81BF6FF4AE7503EB050B40F25D139D
:104090008B600B680A464FF0000543F4F06342F86A
:1040A0001C3BCDE9045580460C4698BF4FF0000BF1
:1040B00001921646AA46A9460295A26852B13B68EB
:1040C0001B784E2B64D8402B3CD8A3F12B01C8B2EF
:1040D0000E283AD9B9F1000F03D0236823F4807376
:1040E00023600AF1FF3ABAF1010F00F21781019B38
:1040F0009E4200F20881012007B0BDE8F08FA3F1D5
:1041000061020D2AE6D801A151F822F053420008BD
:10411000D5400008D5400008D5400008B34200084B
:104120008B420008D5400008D540000861420008D5
:10413000D5400008D5400008D5400008D54000080B
:1041400019420008A3F14102DBE70E29C2D801A001
:1041500050F821F009420008D54000080942000843
:104160009F420008D5400008B1410008EF41000817
:10417000EF410008EF410008EF410008EF4100085F
:10418000EF410008EF410008EF410008EF4100084F
:104190006E2B09D8602BB2D8542B7BD0592B99D1D8
:1041A000072D97D108252CE0742B73D0792BF6E7D7
:1041B0002168C8051BD521F08001216009F10109A2
:1041C000BBF1000F03D001320BF1FF3BA260A368EB
:1041D000013BA3602369013323617B68013B002B12
:1041E0007B6040F387803B6801333B6065E71AEBF7
:1041F00005017FF46FAF226822F4C07222600D4681
:104200008A4606F8013BE2E7226810067FF562AFB6
:1042100022F080022260F4E7BAF1000F0ED1B9F16A
:10422000000F0ED1226802F4E061B1F5E06F08D111
:1042300022F4F06222604FF0010AE2E7BAF1020FC5
:1042400055D0012D02D0042D7FF444AF0135EDB2DD
:10425000D7E7BAF1010F7FF43DAF4FF0020AD0E784
:104260007DB9B9F1000F7FF438AF226802F4E06144
:10427000B1F5E06F40F0088122F4F0622260012580
:10428000BFE7032DE2D0052DDEE7022D7FF422AF3C
:104290000325B6E7062D7FF41DAF0725B1E7226899
:1042A00091057FF517AF22F420722260CDF80890B7
:1042B000A7E7226802F4A061B1F5806F06D050052F
:1042C0007FF508AFB9F1000F00F0DE80910558BF0F
:1042D000029922F4F06258BFA9EB010142F4C072C6
:1042E00058BFCDE9041622604FF0000989E74FF06E
:1042F000030A86E7D4F880313946404698470028BB
:104300003FF4DBAEE6E6D4F87C3116F8011D3A4600
:10431000404698472369013B2361E8E66B1E062B64
:1043200024D8022D36D8019B9E427FF6E4AED4F805
:104330007C3116F8011D3A46404698472369013BF7
:104340002361F0E7D4F87C311BF8011D3A46404662
:1043500098472369013B23610AF1FF3A5FFA8AFA21
:10436000BAF1020FEED1033DEDB2761B2368DA05F8
:1043700030D55B0511D5019B9E427FF6BCAED4F8CB
:104380007C3116F8011D3A46404698472369013BA7
:104390002361F0E7AA46B346DEE716F8011C23695D
:1043A000652903F1FF3306F1FF3523610CD0452960
:1043B0000AD0D4F87C313A4640469847236916F82B
:1043C000021C013BB51E2361D4F87C313A464046BD
:1043D00098472E46226812F0100201D000208BE68A
:1043E0003270236803F4C063B3F5806F1CD1029B65
:1043F0004B45A3EB090223D101990022404602F06C
:104400000BFC039B21681B6811F0020F57EC106B2B
:1044100003F104021FD003990A601B68C3E9006717
:10442000E3680133E360D9E7049B002BE4D00599EE
:104430000A230131404602F06FFC049B059EC21A1C
:1044400004F26F139E4228BF04F5B7761049304638
:1044500000F0F6F8D0E711F0040F03990A60DCD100
:104460001D6832463B4630463946FCF767FB28B1AB
:10447000084800F0C9F985ED000AD1E73046394611
:10448000FCF7BAFB2860CBE74FF0000929E600BF34
:10449000B48000084D840008002310B50446C0E92C
:1044A0000033C0E90433836081814366C281836144
:1044B000194608225C3000F026F90D4B63620D4B63
:1044C000A3620D4BE3620D4B23630D4B24629C42B0
:1044D00006D003F16802944202D0D0339C4205D149
:1044E00004F15800BDE8104000F08AB910BD00BFCB
:1044F00081460008A3460008DB460008FF46000886
:104500004C020020024A0349034800F069B800BF8A
:104510000C000020597300081C00002041680C4B5F
:10452000994210B5044601D002F016FFA168094B6C
:10453000994202D0204602F00FFFE168064B9942F3
:1045400004D02046BDE8104002F006BF10BD00BFF9
:104550004C020020B40200201C03002010B50B4BBD
:104560000B4C0C4A1A60204600220421FFF794FFEE
:1045700004F1680001220921FFF78EFF04F1D00049
:104580000222BDE810401221FFF786BF84030020FD
:104590004C02002005450008014800F032B900BF78
:1045A0008D030020014800F02DB900BF8D030020CD
:1045B00010B50446FFF7F0FF236A1BB1BDE81040B9
:1045C000FFF7F0BF044B2362044B1B68002BF5D1AF
:1045D000FFF7C4FFF2E700BF1D4500088403002079
:1045E0002DE9F8430746884614460026D4E901958C
:1045F000B9F1010905D52468002CF7D13046BDE892
:10460000F883AB89012B07D9B5F90E30013303D0FC
:1046100029463846C04706436835E9E70FB407B571
:10462000064904AB086853F8042B8168019302F033
:10463000F7FC03B05DF804EB04B0704718000020ED
:104640000EB400B59CB01DAB029006906FF0004117
:10465000094807910491094953F8042B0591006812
:10466000019302A902F0B6FB029B00221A701CB053
:104670005DF804EB03B07047180000200802FFFF4C
:1046800010B50C46B1F90E1000F06CF80028ABBF65
:10469000636DA3891B1823F48053ACBF6365A381AA
:1046A00010BD2DE9F0411F468B89DB0505460C4600
:1046B000164605D5B1F90E100223002200F040F88D
:1046C000A389B4F90E1023F48053A38132463B46EC
:1046D0002846BDE8F04100F057B810B50C46B1F9D6
:1046E0000E1000F02DF8431CA38915BF606523F45C
:1046F000805343F48053A38118BFA38110BDB1F947
:104700000E1000F00DB802440346934200D17047EA
:1047100003F8011BF9E7000000487047580100202A
:1047200038B5064D0023044608462B60FDF71FF8F8
:10473000431C02D12B6803B1236038BD88030020DD
:1047400038B5074D04460846114600222A601A462D
:10475000FDF734F8431C02D12B6803B1236038BD48
:104760008803002038B5074D04460846114600224C
:104770002A601A46FCF7DEFF431C02D12B6803B106
:10478000236038BD8803002038B5074D044608462D
:10479000114600222A601A46FCF7C6FD431C02D1CE
:1047A0002B6803B1236038BD88030020014B1868D3
:1047B000704700BF1800002070B50D4D0D4C641BF4
:1047C000A4100026A64209D10B4D0C4C03F076FB39
:1047D000641BA4100026A64205D170BD55F8043B09
:1047E00098470136EEE755F8043B98470136F2E763
:1047F000B8840008B8840008B8840008BC840008A5
:1048000070477047704700009FED010A704700BF76
:104810000000C07F2DE9F74F03690C69A3420746EA
:104820007EDB013C01F11408A30000F114050093A4
:1048300005EB8403019358F8243055F82420013304
:104840009A4208EB8409B2FBF3F62ED34FF0000A2C
:10485000C446AE46D3465CF8043B98B206FB00A0C3
:10486000020C1B0C06FB0323DEF8002080B292B280
:10487000121A5A44DEF800004FEA134A9BB2C3EB07
:10488000224303EB104392B242EA0342E1454EF861
:10489000042B4FEA234BDED2009BEB582BB9019B34
:1048A000043B9D421A462FD33C61384601F0C4F9BF
:1048B000002825DB2946002058F8042BD1F800C039
:1048C0001FFA82FE1FFA8CF3A3EB0E030344120CB3
:1048D000C2EB234202EB1C429BB243EA0243C145B6
:1048E00041F8043B4FEA2240E6D255F8242005EB7C
:1048F000840322B9043B9D421A460BD33C61013626
:10490000304603B0BDE8F08F1268043B002ACBD1DB
:10491000013CC6E71268043B002AEFD1013CEAE7FC
:104920000020EEE7000000002DE9F04FC76999B0C4
:104930008DED020B55EC104B229E099183460E9291
:1049400013937FB9102000F0FDFD0246CBF81C0048
:1049500020B9A74BEF21A74802F00EFEC0E901776E
:104960000760C760DBF81C30196859B15A684A60A3
:10497000012393408B60584600F0DAFEDBF81C30D0
:1049800000221A602B1EB9BF23F0004303930023BB
:104990003360039F984BBCBF01223260BB4312D1EE
:1049A000139A42F20F731360C7F31303234300F00B
:1049B0004D85239BDFF854A2002B00F04F850AF1B0
:1049C000030300F049BD9DED027B002251EC170B63
:1049D00000238DED0C7BFCF77FF8804658B1139ACD
:1049E00001231360239B13B1239A844B1360DFF8D8
:1049F00020A200F033BD9DED0C0B16AA17A9584656
:104A000001F03AFAC7F30A568146002E77D00D9B83
:104A1000CDF85080C3F31303DDE90C0143F07F535D
:104A200043F44013A6F2FF3619460022744BFBF7FD
:104A300033FC69A3D3E90023FBF7E6FD68A3D3E9C0
:104A40000023FBF72BFC044630460D46FBF772FDB6
:104A500065A3D3E90023FBF7D7FD02460B462046AA
:104A60002946FBF71BFC04460D46FCF77DF80022A7
:104A70000746002320462946FCF738F840B138465F
:104A8000FBF758FD22462B46FCF726F800B9013FFC
:104A9000162F51D85B4B03EBC703D3E90023DDE9A5
:104AA0000C01FCF723F8002848D0013F00231293A3
:104AB000169B9B1B5A1E44BFC3F10108002308929A
:104AC00054BF4FF000080893002F39DB089B0F9765
:104AD0003B44089300230A93099B092B64D8052BB8
:104AE000C4BF043B0993099BA3F10203CCBF00247C
:104AF0000124032B63D8DFE803F02A373555DDE9BD
:104B000016631E4406F23243202BC1BFC3F140039B
:104B10009F4006F2124324FA03F3D6BFC3F12003E9
:104B200047EA030004FA03F0FBF7F4FC0122A1F1C9
:104B3000F873013E149277E70123B8E71290B7E7C4
:104B40007B420A930023A8EB07080F93C4E70023D6
:104B50000B930E9B002B35DC0123009307931A4621
:104B60000E920BE00123F3E700230B930E9BFB183F
:104B700000930133012B0793B8BF0123DBF81C001E
:104B80000021042202F114059D421FD941605846BC
:104B900000F08EFD824600283CD11B4B024640F2BD
:104BA000AF11D8E60123E0E70124002309930B9419
:104BB0004FF0FF330093079300221223D0E7012325
:104BC0000B93F5E70E9B00930793D7E70131520053
:104BD000D8E700BFAFF3008061436F63A787D23F80
:104BE000B3C8608B288AC63FFB799F501344D33FDC
:104BF000C6800008DD8000080000F07F918000087A
:104C00000000F83FD881000835810008C280000804
:104C100090800008DBF81C301860079B0E2B00F218
:104C2000A480002C00F0A180002F33DDAD4B07F0F5
:104C30000F0203EBC20393ED007BF8058DED047BBF
:104C40004FEA271416D5A84BDDE90C01D3E9082358
:104C5000FBF704FECDE9020104F00F040326A24D88
:104C600054B9DDE90423DDE90201FBF7F7FDCDE9E5
:104C7000020128E00226F2E7E10708D5DDE9040198
:104C8000D5E90023FBF7C0FCCDE90401013664102F
:104C90000835E5E700F0D2807C42924B924D04F05B
:104CA0000F0203EBC203D3E90023DDE90C01FBF79C
:104CB000ABFCCDE90201241100230226002C40F0B8
:104CC000B280002BD3D1129BDDE90245002B00F00E
:104CD000B780864B002220462946FBF707FF0028B5
:104CE00000F0AE80079B002B00F0AA80009B002BF9
:104CF00037DD7B1E049320467D4B00222946FBF7BF
:104D000083FCCDE90201009C01363046FBF712FC22
:104D1000DDE90223FBF778FC764B0022FBF7BEFAB5
:104D20000546A1F15076002C40F08D80DDE90201AE
:104D3000714B0022FBF7B0FA02460B46CDE9022385
:104D40002A463346FBF7F0FE002840F08B82DDE96F
:104D500002012A4606F10043FBF7C8FE002840F096
:104D60002881DDE90C34CDE90234179B002BC0F219
:104D70005A810E2F00F357815A4B03EBC70393ED73
:104D8000007B0E9B002B8DED007B03DA079B002B35
:104D900040F30181DDE902455646DDE90023204666
:104DA0002946FBF75BFDFBF7DFFE8046FBF7C2FB06
:104DB000DDE90023FBF728FC02460B462046294686
:104DC00008F13004FBF768FA06F8014B079DA6EBE3
:104DD0000A04A54202460B4640F01781FBF75EFA33
:104DE000DDE9002304460D46FBF79EFE002840F057
:104DF000F980DDE9002320462946FBF76DFE18B156
:104E000018F0010F40F0EE804946584600F090FC43
:104E100000233370139B01371F60239B002B00F08E
:104E20001D831E601AE3E20705D5D5E90023FBF7D1
:104E3000EBFB01360123641008353FE7022642E709
:104E4000079C049761E7274B0B9903EBC40353E9D5
:104E500002235444002953D028490020FBF7FEFCCC
:104E600033462A46FBF718FACDE910015646DDE92C
:104E70000201FBF779FE0546FBF75CFB02460B4699
:104E8000DDE90201FBF708FA303502460B46CDE9B1
:104E9000022306F8015BDDE91023FBF727FE00285B
:104EA00071D1DDE9022311490020FBF7F5F9DDE9B5
:104EB0001023FBF71BFE002840F09580A6423FF42C
:104EC00050AFDDE910010A4B0022FBF79DFB084BB8
:104ED000CDE910010022DDE90201FBF795FBCDE9E8
:104EE0000201C4E7D8810008B08100080000F03F4B
:104EF0000000244000001C40000014400000E03F7F
:104F000031462846FBF780FBCDE910011594564643
:104F1000DDE90201FBF728FE0546FBF70BFB024625
:104F20000B46DDE90201FBF7B7F9303506F8015B06
:104F300002460B46A642CDE902234FF0000224D1DF
:104F4000AC4BDDE91001FBF7A9F902460B46DDE9A0
:104F50000201FBF7E9FD002845D1DDE91023A54951
:104F60000020FBF799F902460B46DDE90201FBF749
:104F7000BDFD00283FF4F5AE159E731E159316F87F
:104F8000013C302BF8D0049F3EE79B4BFBF73CFBEA
:104F9000CDE90201BCE70CD1984B0022DDE900010C
:104FA000FBF732FBDDE90223FBF7B4FD002800F03C
:104FB0005781002425460E9BDB4304935646002769
:104FC0002146584600F0B4FB002DDCD02FB1AF4293
:104FD00003D03946584600F0ABFB2946584600F04E
:104FE000A7FBD0E7049733461E4613F8012D392A54
:104FF00007D19A45F8D1049A0132049230228AF8F6
:1050000000201A7801321A70BDE77B4B0022FBF7B3
:10501000FBFA0022002304460D46FBF75DFD002845
:105020003FF4BBAEF0E60B9A002A00F0DB80099A51
:10503000012A00F3BF80149A002A00F0B78003F21F
:1050400033430A9C4646089A01211A44584698441C
:10505000089200F06BFC05465EB1089B002B08DD52
:10506000B342089AA8BF3346A8EB0308F61AD31A2E
:1050700008930A9BF3B10B9B002B00F0B7808CB117
:1050800029462246584600F011FD4A46014605468B
:10509000584600F061FC49460490584600F048FB31
:1050A000049B99460A9B1A1B04D04946584600F0B7
:1050B000FDFC81460121584600F038FC0F9B044658
:1050C000002B00F0CF811A460146584600F0EEFC56
:1050D000099B012B044600F39580029B002B40F0B6
:1050E0008780039BC3F31303002B40F08980039B4D
:1050F00023F000431B0D1B052BB1089B01330893C4
:1051000008F1010801230A930F9B002B00F0B081E6
:10511000236904EB8303186900F0BCFBC0F1200095
:10512000089B184410F01F0077D0C0F12003042B17
:105130006BDD089BC0F11C000344804406440893C7
:10514000B8F1000F05DD49464246584600F008FD1B
:105150008146089B002B05DD21461A46584600F083
:10516000FFFC0446129B002B59D02146484600F014
:1051700063FD002853DA7B1E0493494600230A226C
:10518000584600F0F7FA0B9B8146002B00F0728125
:10519000002329460A22584600F0ECFA009B002B17
:1051A000054667DC099B022B41DC63E0169BC3F1DB
:1051B000360346E7079B5C1E0A9BA342BFBF0A9BC0
:1051C0000F9A0A94E31AB4BFD2181C1B079BBCBFEA
:1051D0000F920024002BB5BFA8EB0306079B00230A
:1051E000464630E70A9C0B9D464635E70A9A5CE73F
:1051F000002388E70000E03F000024400000144046
:10520000029B80E700230A9382E799D0089A1C3317
:105210001A4498441E44089292E70346F6E7079B17
:105220000497002B20DC0093099B022B1EDD009BC2
:10523000002B7FF4C0AE21460522584600F09AFAB2
:1052400001460446484600F0F7FC00287FF7B3AE5D
:105250005646312306F8013B049B01330493AEE626
:10526000079C04972546F3E7079B00930B9B002BB5
:1052700000F00481002E05DD29463246584600F034
:105280006FFC05460A9B002B5AD06968584600F00F
:105290000FFA064628B9844B024640F2EF21FFF789
:1052A0005ABB2A690232920005F10C010C3002F05F
:1052B0004BF901223146584600F052FC0AF1010335
:1052C0000793009B53440B93029B03F001032F466B
:1052D0000A930546079B2146013B48460093FFF78A
:1052E00099FA3946029000F13008484600F0A4FCD3
:1052F0002A4608902146584600F0BAFCC268064685
:1053000002BB0146484600F097FC0246314658462B
:105310000E9200F00DFA099B0E9A079E43EA0201D5
:105320000A9B194310D1B8F1390F29D0089B002BE3
:1053300002DD029B03F13108009B83F800803FE609
:105340002846BBE70122E1E7089B002B04DB099913
:105350000B430A990B4320D1002AEDDD4946012277
:10536000584600F0FDFB2146814600F065FC002810
:1053700003DCE1D118F0010FDED0B8F1390FD8D13C
:10538000009A3923137033461E46013B16F8012C50
:10539000392A52D001321A7012E6002A07DDB8F11C
:1053A000390FEDD0009A08F10103137008E6079B4E
:1053B000079A03F8018C0B9B934228D0494600239F
:1053C0000A22584600F0D6F9AF4281464FF000035A
:1053D0004FF00A023946584607D100F0CBF907468C
:1053E0000546079B0133079374E700F0C3F929468C
:1053F000074600230A22584600F0BCF90546F0E7AC
:10540000009B002BCCBF1E46012656440027494670
:105410000122584600F0A4FB2146814600F00CFC16
:105420000028B0DC02D118F0010FACD133461E4683
:1054300013F8012D302AFAD0C2E59A45A4D1049B75
:105440000133049331238AF80030B9E5239BDFF858
:105450005CA01BB10AF10803239A1360504619B0EF
:10546000BDE8F08F099B012B7FF737AE0F9B0A93A6
:10547000012055E6009B002B7FF7D6AE564621460D
:105480004846FFF7C7F900F1300806F8018B009B8A
:10549000A6EB0A029342B3DD494600230A2258468E
:1054A00000F068F98146EAE735810008B980000814
:1054B00038B50546002941D051F8043C0C1F002B9B
:1054C000B8BFE41800F0E8F81D4A136833B9636008
:1054D00014602846BDE8384000F0E4B8A34208D97B
:1054E000206821188B4201BF19685B680918216088
:1054F000EDE71A465B680BB1A342FAD91168501860
:10550000A0420BD120680144501883421160E0D1C1
:1055100018685B68536008441060DAE702D90C230E
:105520002B60D6E7206821188B4204BF19685B689E
:10553000636004BF091821605460CAE738BD00BF2A
:1055400094030020024B0146186800F025B800BF04
:105550001800002070B50F4E0C463168054611B991
:1055600001F0E2FF30602146284601F0DDFF431CD8
:1055700003D14FF0FF34204670BDC41C24F0030457
:10558000A042F8D0211A284601F0CEFF0130F2D116
:10559000EFE700BF900300202DE9F843CD1C25F074
:1055A000030508350C2D38BF0C25002D064601DB00
:1055B000A94204D90C2333600020BDE8F883DFF84A
:1055C000D48000F069F8D8F800301C4644BB294666
:1055D0003046FFF7BFFF431C044658D1D8F80040BF
:1055E0002746002F43D1002C4BD023683946304644
:1055F00004EB030901F098FF814542D121686D1A3F
:1056000029463046FFF7A6FF01303AD023682B44E5
:105610002360D8F800305A6862BBC8F800700FE009
:105620002268521B20D40B2A17D96119A342256086
:1056300018BF5960636808BFC8F8001062514B601A
:10564000304600F02FF804F10B00231D20F0070076
:10565000C21A1CBF1B1AA350AFE76268A3420CBF5B
:10566000C8F800205A60EBE723466468AEE73C4682
:105670007F68B6E71A465B68A342FBD100235360FC
:10568000DEE70C233360304600F00CF894E7056049
:10569000D6E700BF940300200148FFF7B2B800BF6F
:1056A0008C0300200148FFF7ADB800BF8C03002039
:1056B00070B5C66904460D4676B91020FFF742FF63
:1056C0000246E06120B9184B18486B2101F054FFE5
:1056D000C0E901660660C660E669F36883B1E36904
:1056E000DB6853F82500B8B9012101FA05F6721DEF
:1056F0009200204601F05EFF60B1C0E901560EE065
:1057000021220421204601F055FFE369F060DB68A7
:10571000002BE4D1002070BD026843F8252000234F
:10572000C0E90333F7E700BFC680000846810008E0
:1057300070B5C66905460C4676B91020FFF702FF22
:105740000246E86120B9094B09488F2101F014FF96
:10575000C0E901660660C6603CB1EB696268DB685F
:1057600053F82210216043F8224070BDC680000823
:10577000468100082DE9F0410D6907460C461E469A
:1057800001F1140C0020DCF8003099B202FB016139
:105790001E0C0B0C02FB063389B2013001EB0341F6
:1057A00085424CF8041B4FEA1346ECDC0EB3A368A9
:1057B000AB4219DC616838460131FFF779FF80465A
:1057C00028B902460C4B0D48BA2101F0D5FE2269DA
:1057D000023204F10C0192000C3001F0B5FE2146BA
:1057E0003846FFF7A5FF444604EB850301355E61AB
:1057F00025612046BDE8F08135810008468100081A
:105800002DE9F8430C4615461F4609220833064683
:1058100093FBF2F3002101229A4209DB3046FFF7A5
:1058200047FF40B90246194B1948D32101F0A4FEA5
:1058300052000131F0E7089B4361092D4FF001034D
:10584000036116DD04F10909C8462C4418F8013B30
:105850000146303B0A223046FFF78CFFA045F5D1C8
:10586000A5F108044C442D1B6319BB4204DBBDE8C1
:10587000F8830A340925F6E714F8013B0146303B6A
:105880000A223046FFF776FFEEE700BF35810008B9
:1058900046810008B0F5803F034636BF0304002070
:1058A0001020B3F1807F3CBF1B020830B3F1805F52
:1058B0003CBF1B010430B3F1804F3CBF9B00023062
:1058C000002B05DB13F0804F00F1010008BF202002
:1058D00070470368024613F007000BD0D90721D4A4
:1058E000980749BF5B089B08012013605CBF1360E9
:1058F0000220704799B209B91B0C1020D9B209B91E
:1059000008301B0A190704BF1B090430990704BF9C
:105910009B080230D90703D45B0800F1010003D0D3
:1059200013607047002070472020704710B50C4668
:105930000121FFF7BDFE024628B9054B054840F29C
:10594000451101F019FE01234461036110BD00BF40
:1059500035810008468100082DE9F04F14460A6998
:1059600023699A42A8BF23460F46A4BF0C461F4690
:10597000D4F810A0D7F81090A36861680AEB090664
:10598000B34285B0B8BF0131FFF792FE30B902468D
:10599000444B45484FF4B17101F0EEFD00F11405A0
:1059A00005EB86082B460022434521D307F114015D
:1059B00004F1140202EB8A0201EB89030293131B28
:1059C000153B23F00303043304F11507BA4238BF33
:1059D00004230193029B03918B420CD8002E03DD1C
:1059E00058F8043D002B5BD0066105B0BDE8F08F90
:1059F00043F8042BD8E7B1F800A0BAF1000F24D087
:105A000004F1140EA9464FF0000C5EF8047BD9F89F
:105A100000301FFA87FB9BB20AFB0B334FEA174B90
:105A2000D9F8007063444FEA174C0AFB0BC707EB29
:105A300013479BB243EA0743724549F8043B4FEAD8
:105A4000174CE2D8019B45F803C0039BB3F80290C2
:105A50000431B9F1000F21D02B6804F1140CAE46CB
:105A60004FF0000ABCF800B0BEF8027009FB0B77DB
:105A700057449BB243EA07434EF8043B5CF8043BAF
:105A80004FEA134ABEF8003009FB0A3303EB174311
:105A900062454FEA134AE5D8019FEB51043599E777
:105AA000013E9BE735810008468100082DE9F84357
:105AB000154612F0030207460E4607D0254C013A60
:105AC000002354F82220FFF755FE0646AD103DD0C6
:105AD000FC697CB91020FFF735FD0246F86128B952
